:10400000007F0020E199010089980100DD990100FD
:10401000DD990100DD990100DD990100DD990100C4
:10402000000000000000000000000000DD99010019
:10403000DD99010000000000DD990100DD9901001B
:104040000000000000000000000000000000000070
:104050000000000000000000000000000000000060
:104060000000000000000000000000000000000050
:104070000000000000000000000000000000000040
:104080000000000000000000000000000000000030
:104090000000000000000000000000000000000020
:1040A0000000000000000000000000000000000010
:1040B0000000000000000000000000000000000000
:1040C00010B5054C237833B9044B13B10448AFF352
:1040D00000800123237010BDD803002000000000E1
:1040E000E093020008B5034B1BB103490348AFF34B
:1040F000008008BD00000000DC030020E093020007
:104100002DE9D04357EC106B234C2DED028B10EEB4
:10411000102A3B4610EE100A394694ED358A1BF002
:10412000A7FD48B118EE100A1BF0B0FABDEC028BE7
:1041300041EC100BBDE8D083B4EE488AF1EE10FAE2
:104140001ED618EE100A1BF0A1FA0FA3D3E9002324
:104150001BF0F4FA0EA3D3E90023804689463046CB
:1041600039461BF0EBFA02460B46404649461BF027
:104170002FF91BF0DBFDC4F8D400D4F8D400D3E74A
:1041800030463946F5E700BF9A9999999999E93FE0
:104190009A9999999999C93F200800202DE9F043EF
:1041A0002DED028B5C48DFF8A481DFF8A49183B089
:1041B0000AF0AAFF18F07EFF054601F009FE04464A
:1041C000B8B105F0B5FEFFF79BFF51EC100B1BF0EB
:1041D00065FD00B2A8F800001BF046FAB9F90060CE
:1041E00041EC100B3146204606F0DAFB4B4B012226
:1041F0001A704B4C236840F6B832EB1A934205D93B
:1042000006F01EF8284601F015FD2560454C236890
:10421000EB1AB3F5FA7F02D905F0ACFF2560424CEA
:1042200023684EF65F22EB1A934202D905F0A0FFF5
:10423000256005F07DFE51EC100BB0EE408AF0EEEB
:10424000608A1BF073FDB0EE480AF0EE680A374C46
:10425000C4F8D800FFF754FF57EC106B10EE102A8B
:104260003B4610EE100A39461BF002FD48B9002209
:104270002F4B304639461BF0ABF81BF00FFDA8F86A
:104280000000394630461BF051FDC4F8D40000F060
:1042900073FCC4F8F40001F093FDFF2300930023A6
:1042A000194664220646A9F8000017F01FFC0146D3
:1042B000052017F041FB1F4B94F818211A701E4B74
:1042C000B4F814211A801D4BB4F816211A801C4B27
:1042D00094F806211A701B4B94F80421C4F88061ED
:1042E0001A70C4F888510AF007F818B908F090FE5F
:1042F00005F0F2F9B8F900001BF0B6F9124B41ECE9
:10430000100B3146187807F00FF903B0BDEC028BA3
:10431000BDE8F0430AF006B828140020040000208D
:10432000FC030020F8030020F403002020080020F4
:104330000000E03F280400200200002000000020D0
:104340000C04002090040020AC0400209204002003
:104350008004002010B51B4C1B48214617F06AFF53
:1043600021461A4817F066FF2146194817F062FFE8
:104370002146184817F05EFF2146174817F05AFFEC
:104380002146164817F056FF2146154817F052FFF0
:104390002146144817F04EFF2146134817F04AFFF4
:1043A0002146124817F046FF2146114817F042FFF8
:1043B0002146104817F03EFF21460F48BDE8104047
:1043C00017F038BF803E0200840400200004002063
:1043D0002C0400201C0400201004002038040020BD
:1043E0006804002074040020A0040020940400202D
:1043F000500400205C0400204404002008B5144848
:1044000017F0CDFE134817F0CAFE134817F0C7FE89
:10441000124817F0C4FE124817F0C1FE114817F0F9
:10442000BEFE114817F0BBFE104817F0B8FE10484A
:1044300017F0B5FE0F4817F0B2FE0F4817F0AFFEA9
:104440000E4817F0ACFE0E48BDE8084017F0A7BEB6
:10445000440400205C040020500400209404002048
:10446000A004002074040020680400203804002008
:10447000100400201C0400202C0400200004002054
:104480008404002008B54FF4E131294816F0DEFD20
:104490004FF4FA7018F0CAFD0121062018F086FCCE
:1044A0000121062018F09AFC0121052018F07EFC5D
:1044B0000021052017F040FA1D4817F09FFD1D4907
:1044C0001B4817F0ABFD1C480AF0CEFC1B491A48EC
:1044D0000AF0DEF905F07EFF01F048F8184B194AA2
:1044E00093F818111170184AB3F814111180B3F829
:1044F0001621164B1A8005F0E7FE01F08BFB00F049
:10450000DFFA01F0B7FB0C4801F05CFC06F06EF935
:1045100009F060FE09F0F0FE18B907F0B3FD01F0F4
:10452000B7FD4FF4FA510A48BDE808400AF058BEFA
:10453000381A002090300200640B0020801A060018
:104540002008002028040020020000200000002095
:10455000281400202DE9F843414CDDF8209094F810
:10456000061101390129054616461F4637D894F829
:104570007011A9B9104619461BF07AFB804678B92C
:10458000B4F97C011BF070F832463B461BF066FB29
:1045900030B1012384F86E81C4F8749184F87031CD
:1045A00094F87031DBB132463B46304639461BF059
:1045B0005FFB804640B9B4F97E011BF055F83246E6
:1045C0003B461BF037FBC8B9D4F87431D4F87821D6
:1045D000A9EB03094EF660235343994515D294F88D
:1045E0006F1129B304230620012184F8063118F045
:1045F000F5FB0020C4F88001BDE8F88384F87081E1
:1046000084F86E81C4F87481E9E70423002084F8FB
:104610000631012384F8F80084F8070184F80C01BE
:1046200084F86E3184F86F3184F870010546D6E75E
:1046300094F80631013B022B88BF0121062018F0B7
:10464000CDFB002D09DDD4F8E400A842D4DCD4F879
:10465000E800A842A8BF2846CEE70020CCE700BF6C
:1046600020080020FFFFFFFF2DE9F04F0B4687B029
:104670001546024682468B461BF0FAFA20B1002509
:10468000284607B0BDE8F08FBF4F02973E68BF4C89
:10469000002E00F08880AE1BB6F57A7FC0F08880CF
:1046A000BB4BD3E9008942464B46404649461BF086
:1046B000DFFA002840F0C88130461AF0C5FF00221A
:1046C000B44B1BF065F90022002306460F461BF091
:1046D000C5FA002800F0B88142464B46504659467C
:1046E0001AF074FE32463B461BF052F9804689466A
:1046F00094F8F030002B56D1D4F8DC70A64EA7F118
:1047000014001AF0B1FF02460B46504659461BF002
:1047100087FA78B198A3D3E90023404649461BF0B5
:104720007FFA38B1D6ED007A9FED9C7A77EE877AE2
:10473000C6ED007A07F114001AF096FF02460B4608
:10474000504659461BF08AFA78B18BA3D3E900236F
:10475000404649461BF082FA38B1D6ED007A9FED0B
:104760008F7A77EEC77AC6ED007A96ED000AF6EEFC
:10477000007AB4EEE70AF1EE10FA54D4F0EE007AC3
:10478000B4EE670AF1EE10FAC8BFB0EE670A86ED24
:10479000000A834E33684EF65F22EB1A934202D929
:1047A00001F00EF935607A4BC3E900AB029B1D6046
:1047B000D4F8EC001AF058FF00227A4B1AF0BEFF32
:1047C00000220023CDE902011BF034FA18B19FED5D
:1047D0006C7B8DED027BD4F8DC001AF045FFDDE93F
:1047E000022306460F461AF0F1FDDDE9022380465A
:1047F0008946304639461AF0EBFD94F806316A4E88
:10480000022BCDE9040119D142464B465046594688
:104810001BF006FA50B1012384F8063100233370EF
:10482000D4F880512CE7B0EE670AB0E733782BB9A3
:1048300001235E4A337005F6B833136033782BB129
:104840005A4B1B68AB429CBF0023337094F8F03086
:10485000012B2BD142464B46504659461BF0EAF9F4
:1048600010B1D4F8E8500BE7DDE90423504659466F
:10487000D4F8E4501BF0E8F900287FF401AFDDE93B
:1048800004011BF00BFA4946074640461BF006FAA6
:104890005946064650461BF001FA0095D4F8E83018
:1048A0003A46314617F022F90546E9E6002B7FF437
:1048B000E6AE42464B46504659461BF0C5F940B15C
:1048C000DDE90423504659461BF0B4F900287FF473
:1048D000D6AE42464B46504659461BF0A1F9002839
:1048E00066D052465B46404649461AF06FFD804608
:1048F000894602460B46DDE902011BF09BF90028C0
:1049000040F0A080D4F8E8001AF0AEFEDDE9022302
:1049100006460F46404649461BF03AF832463B46AB
:104920001AF00CFF1C4B8046186889461AF0AEFE40
:1049300002460B46404649461AF000FF8046D4F82E
:10494000E40089461AF090FE42464B4604460D4666
:104950001BF084F908B944464D4622462B463046A2
:1049600039461BF05DF908B926462F4630463946D0
:104970001BF094F998E700BF9A9999999999A93FE2
:10498000000000000000F03FC004002020080020CC
:104990001000002000408F40080000200AD7A33BF1
:1049A000B80400200000E03FAD040020B004002067
:1049B000DDE90423504659461BF050F900283FF426
:1049C0005EAEDDE90423504659461AF0FFFC064668
:1049D0000F4602460B46DDE902011BF02BF90028C9
:1049E0007FF44DAED4F8E4001AF03EFEDDE9022378
:1049F00004460D46304639461AF0CAFF02460B46B9
:104A0000002014491AF0E2FC02460B4620462946D3
:104A10001AF094FE104B044618680D461AF036FE44
:104A200002460B46204629461AF088FE0022002343
:104A300004460D461BF0F4F808B10024002520467A
:104A4000294695E764251BE64FF000084FF0000962
:104A50004EE600BF0000F03F08000020014B93ED40
:104A6000000A704708000020044A00231360044A2B
:104A70001360044A82F80531704700BFBC0400206F
:104A8000B40400202008002008B5FFF7EDFF0B4B11
:104A9000002283F8E02083F8042183F86E2183F854
:104AA0006F2183F87021C3F8742183F8F82083F80C
:104AB000072183F80C2183F8062108BD2008002077
:104AC00038B50024184D2146052085F8064116F01A
:104AD00033FF00F0AAFB154B154983ED000A154B77
:104AE00085F8F8400020C3E90001134B85F80C411C
:104AF0001C60124B85F807411C60114B85F86E4114
:104B00001C60104BC5F87441012106201C6085F81B
:104B10006F4185F8704118F049F901210620BDE880
:104B2000384018F05BB900BF2008002008000020C2
:104B30000000F87F10000020C0040020B80400200E
:104B4000BC040020B404002010B50A4C012384F8F2
:104B5000F83018F0AFFA002384F86E31C4F87431DD
:104B600084F86F3184F870310323C4F8FC0084F8B2
:104B7000063110BD200800202DE9F0472DED028BF5
:104B8000B44D86B018F096FA95F80431013B012B2C
:104B900006462C4611D80620012118F01FF90020E6
:104BA00085F8060185F8F80085F8070185F80C01FD
:104BB00006B0BDEC028BBDE8F08795F8CC20A64B83
:104BC000002A44D0D5F8D020821AB2F57A7F3ED898
:104BD000002285F8E0201A6094F818819F4FB8F100
:104BE000010F63D12278002A44D094F844309A42CD
:104BF00040D904EB830240F6B831526AB21A8A42B5
:104C000038D804EB830393ED018A18EE100A1AF0EA
:104C10003DFD02460B461BF02BF8054650BBDFED71
:104C2000907A3860B4EEE78AF1EE10FA46DB06209F
:104C3000414684F8048118F0D1F884F8065184F8CC
:104C4000F85084F8075184F80C512846B0E71A68E8
:104C500002B91E601B684EF65F22F31A9342BBD95D
:104C6000012384F8E03094F8053143F0010384F81F
:104C70000531B1E73B6803B93E603B68F61A4EF672
:104C80005F239E421AD902230620012184F80431B1
:104C900084F8053118F0A2F8002084F8060184F8A1
:104CA000F80084F8070184F80C0181E700233B60D9
:104CB00094F8053123F0020384F8053194F80431A7
:104CC0003BB10620012118F089F8002084F8060184
:104CD0006EE794F81831002B40F0CA8018F0EAF91A
:104CE00094ED358A054618EE100A1AF0CFFC0646F8
:104CF000D4F8D8000F461AF0C9FC94F80631032BFB
:104D0000CDE9020116D194F8F8304BB1D4F8FC305B
:104D1000D4F80011EA1A4FF47A734B439A4209D33C
:104D2000002384F8F830012384F8063184F8073131
:104D3000C4F8085194F80631012B3CD194F80721AE
:104D40001AB984F80731C4F8085132463B46304658
:104D500039461AF08DFFB0BBD4F8EC001AF084FC91
:104D60000022404B1AF0EAFC00223F4B8046894665
:104D70001AF056FF18B1DFF8F0904FF00008D4F8A1
:104D8000DC001AF071FC42464B461AF01FFB02464B
:104D90000B46304639461AF057FFA0B1022384F87B
:104DA0000631012384F80C310023C4F8105184F833
:104DB0006E3184F8703194F80631022B3FD0032B0A
:104DC00045D0012B41D132463B46304639461AF098
:104DD0004FFF002839D1D4F8DCA050461AF044FC2B
:104DE0000022224BCDE904011AF0F0FA80468946F0
:104DF00002460B46304639461AF01CFF38BBDDE947
:104E00000423304639461AF01FFF38B1D4F8E400C5
:104E10000095DDE90223FFF79DFBC9E649464046C0
:104E20001AF03CFFFDEEC87AD4F8E4300093014656
:104E30006423524617EE900A16F058FEE8E72A4619
:104E400030463946FFF710FCE2E70020E0E7642037
:104E5000DEE700BF20080020BC040020B4040020CE
:104E600000003E430000E03F0000F03F00006940CA
:104E700018F020F994ED358A054618EE100A1AF05C
:104E800005FC8046D4F8D80089461AF0FFFB94F858
:104E9000443022789A42CDE9020140F2E28004EBEC
:104EA000830358681AF0F2FB06460F4694F8063161
:104EB0009BB932463B46304639461AF0D9FE60B9B6
:104EC000B4F914011AF0D0FB02460B4630463946BD
:104ED0001AF0A6FE08B1FFF737FE94F80631032B4F
:104EE00000F0CC80013B012B20D832463B463046B7
:104EF00039461AF0BDFEA0BBB4F916011AF0B4FB96
:104F000002460B46304639461AF09EFE70B1604AA2
:104F1000002384F8063184F8F83084F8073184F8E7
:104F20000C3184F86E3184F87031137094F80631C6
:104F3000032B16D194F8F8304BB1D4F8FC30D4F8E8
:104F40000011EA1A4FF47A734B439A4209D30023B3
:104F500084F8F830012384F8063184F80731C4F866
:104F6000085194F80631012B3AD194F807211AB967
:104F700084F80731C4F8085142464B46404649463A
:104F80001AF076FEA0BBD4F8EC001AF06DFB0022FC
:104F9000404B1AF0D3FB00223F4B06460F461AF057
:104FA0003FFE08B13C4F0026D4F8DC001AF05CFB51
:104FB00032463B461AF00AFA02460B46404649463C
:104FC0001AF042FEA0B1022384F80631012384F8CE
:104FD0000C310023C4F8105184F86E3184F870311C
:104FE00094F80631022B3FD0032B45D0012B41D141
:104FF00042464B46404649461AF03AFE002839D10F
:10500000D4F8DCA050461AF02FFB0022234BCDE948
:1050100004011AF0DBF906460F4602460B464046ED
:1050200049461AF007FE38BBDDE9042340464946ED
:10503000D4F8E4401AF008FE70B9394630461AF048
:105040002DFEFDEEC87A014600946423524617EE09
:10505000900A16F04BFD04460095DDE90223204638
:10506000D9E600260E4F21E72A4640464946FFF77B
:10507000FBFAF0E70024EFE76424EDE732463B4615
:10508000304639461AF0F4FD00283FF435AF51E7B9
:10509000AD0400200000E03F0000F03F0000694048
:1050A0000000F87F10B504460CF040FB2168BDE815
:1050B00010400CF063BB07B502AB43F8040D184673
:1050C000FFF7F0FF03B05DF804FB38B50546FFF7C6
:1050D000F2FF0446681CFFF7EEFF44EA002000B22E
:1050E00038BD70B500254FF6FF744AF20106284618
:1050F000FFF7E1FF4440A4B20823E2074FEA64004F
:1051000003F1FF3348BF704013F0FF0384B2F4D1C2
:105110000135582DEBD1204670BD73B502AD00238B
:1051200045F8043D04460E460CF000FB2A46216873
:105130000CF08FFB01280CD10CF0F8FA22683146F4
:105140000CF030FB0CF0F2FA0CF04BFB204602B0F6
:1051500070BD0CF0EBFA226831460CF023FBF5E74A
:1051600007B502AB43F8040D1846FFF7D6FF03B0AE
:105170005DF804FB38B50D460446FFF793FF854202
:1051800004D020462946FFF7C8FF0446204638BD14
:1051900007B502AB43F8040D1846FFF7EBFF03B069
:1051A0005DF804FB10B5FFF79CFFBA2104465820B8
:1051B000FFF7EEFF03215920FFF7EAFFE1B25A2083
:1051C000FFF7E6FFC4F307215B20BDE81040FFF7BF
:1051D000DFBF38B505460C46C9B2FFF7C1FFC4F3BF
:1051E0000721681CFFF7BCFFBDE83840FFF7DABFB6
:1051F00001B20020FFF7EDBF01B20220FFF7E9BFC7
:1052000001B20420FFF7E5BF01B20620FFF7E1BFBE
:1052100001B20820FFF7DDBF08B5C1B20A20FFF7D1
:105220009FFFBDE80840FFF7BDBF13B54FF07E53A9
:105230000093342401A80194FFF734FF0DEB04031D
:105240000134382C03F8340CF4D19DED000AB4EE8F
:10525000400AF1EE10FA13D6F6EE007AB4EEE70A41
:10526000F1EE10FA0CD4F0EE007AB4EE670AF1EE2B
:1052700010FAF7EE007AC8BFB0EE670A02B010BDB0
:10528000B7EE000AFAE701B20C20FFF7A2BF01B2A5
:105290000E20FFF79EBF01B21020FFF79ABFFFFF5D
:1052A00038B5074D3C2463192046197A0134FFF7BD
:1052B00057FF442CF7D1BDE83840FFF773BF00BF5C
:1052C000200800202DE9F047164CDFF85CA04FF4D1
:1052D000C87601274FF00008A4F5A2790025A81987
:1052E000FFF7E9FE63190135102D83F84C00F6D164
:1052F00094F84C3084F85B800133DBB2012B06D884
:105300003B465246294609EB06001BF0F5FD1036D8
:10531000B6F5047F07F1010704F11004DED1BDE802
:10532000F08700BF20080020B33002000728F8B53E
:105330000FD800F11906074F3601050100242B197B
:105340003B44301993F84C100134FFF721FF102C27
:10535000F5D1F8BD2008002008B501461220FFF75E
:10536000FFFEBDE80840FFF71DBF08B5014613204A
:10537000FFF7F6FEBDE80840FFF714BF08B5014689
:105380001420FFF7EDFEBDE80840FFF70BBFFFFF5D
:1053900010B50B4C1620B4F92811FFF71AFFB4F919
:1053A0002A111820FFF715FFB4F92C111A20FFF766
:1053B00010FFB4F92E111C20BDE81040FFF709BF03
:1053C0002008002010B50B4C1E20B4F93011FFF757
:1053D00000FFB4F932112020FFF7FBFEB4F93411BD
:1053E0002220FFF7F6FEB4F936112420BDE8104064
:1053F000FFF7EFBE2008002010B50B4C2620B4F9B3
:105400003811FFF7E6FEB4F93A112820FFF7E1FE64
:10541000B4F93C112A20FFF7DCFEB4F93E112C2030
:10542000BDE81040FFF7D5BE2008002010B5154C90
:105430004420B4F94011FFF7CCFEB4F942114620E4
:10544000FFF7C7FEB4F944114820FFF7C2FEB4F9D4
:1054500046114A20FFF7BDFEB4F948114C20FFF772
:10546000B8FEB4F94A114E20FFF7B3FEB4F94C115F
:105470005020FFF7AEFEB4F94E115220BDE81040A7
:10548000FFF7A7BE2008002010B50C4C542094F85C
:105490005011FFF765FE94F851115520FFF760FE9B
:1054A00094F852115620FFF75BFE94F853115720E1
:1054B000FFF756FEBDE81040FFF774BE200800203D
:1054C00001B22E20FFF785BE01B23020FFF781BE6A
:1054D00008B501463220FFF743FEBDE80840FFF75C
:1054E00061BEFFFF70B5074E642440F2A515A319F5
:1054F000204613F8641C0134FFF732FEAC42F6D1AB
:1055000070BD00BFEC0500202DE9F74F0DF1080834
:10551000002348F8083D0F469146144604260CF037
:1055200005F9424639460CF094F901281AD1009D3C
:10553000B54228BF354604EB050AA7EB040B5445DA
:1055400004EB0B0306D014F8011B019301A8FFF72D
:1055500011FEF4E7761B2F440CF0E8F80CF041F94B
:10556000002EDCD1484603B0BDE8F08F2DE9F341B1
:105570000020FFF7AAFDD14CC4F8DC000220FFF7A1
:10558000A4FDC4F800010420FFF79FFDC4F8EC005F
:105590000620FFF79AFDC4F8E4000820FFF795FD08
:1055A000C4F8E8000A20FFF786FD84F8F0000C201C
:1055B000FFF78BFDC4F878010E20FFF786FDA4F8F5
:1055C0007C011020FFF781FDA4F87E011620FFF773
:1055D0007CFDA4F828011820FFF777FDA4F82A0124
:1055E0001A20FFF772FDA4F82C011C20FFF76DFDB7
:1055F000A4F82E011E20FFF768FDA4F8300120203A
:10560000FFF763FDA4F832012220FFF75EFDA4F846
:1056100034012420FFF759FDA4F836012620FFF7B6
:1056200054FDA4F838012820FFF74FFDA4F83A01F3
:105630002A20FFF74AFDA4F83C012C20FFF745FD86
:10564000A4F83E011220FFF736FD84F8550113201F
:10565000FFF731FD003018BF012084F854011420F9
:10566000FFF729FD4FF461635843C4F85801442003
:10567000FFF72BFDA4F840014620FFF726FDA4F814
:1056800042014820FFF721FDA4F844014A20FFF71A
:105690001CFDA4F846014C20FFF717FDA4F84801B3
:1056A0004E20FFF712FDA4F84A015020FFF70DFD30
:1056B000A4F84C015220FFF708FDA4F84E01542035
:1056C000FFF7F9FC84F850015520FFF7F4FC84F84B
:1056D00051015620FFF7EFFC84F852015720FFF7E5
:1056E000EAFC84F853012E20FFF7EFFCA4F8140124
:1056F0003020FFF7EAFCA4F816013220FFF7DBFCAC
:105700003C2584F8180100262846FFF7D4FC6319CD
:10571000072805F1010594BF18721E72442DF3D1BC
:10572000674FFFF7CFFD642540F2A5183E46284697
:10573000FFF7C1FCEB190135454503F8640CF6D1C0
:105740000023F21892F8212142B1203A5E2A02D8B1
:105750000133202BF5D1002386F82131D4F8003114
:10576000D4F85821053BB3F5157F24BF1E23C4F898
:105770000031D4F8DC30C83BB3F52F7F84BF4FF441
:10578000C873C4F8DC30D4F8EC30013B632B84BF21
:105790000A23C4F8EC30D4F8E430642B84BF0A2325
:1057A000C4F8E430D4F8E830642B84BF5A23C4F83A
:1057B000E830D4F87831013B772B84BF0A23C4F852
:1057C0007831B4F87C31323BB3F5E17F84BF782384
:1057D000A4F87C31B4F87E31323BB3F5E17F84BF6D
:1057E000B423A4F87E3194F85531022B84BF0023F2
:1057F00084F85531334B9A4284BF0023C4F85831A2
:1058000094F85031B4F94821642B84BF282384F8DC
:10581000503194F85131642B84BF322384F85131D4
:1058200094F85231642B84BF3C2384F8523194F8AD
:105830005331642B84BF462384F85331B4F940318B
:105840009A42A1BF9623A4F84831AA23A4F8403174
:10585000B4F94A21B4F942319A42A2BF9B23A4F879
:105860004A31AF23B4F94C21A8BFA4F84231B4F9AE
:1058700044319A42A2BFA023A4F84C31B423B4F916
:105880004E21A8BFA4F84431B4F946319A42A4BFCE
:10589000A523A4F84E314FF05A00A4BFB923A4F8B1
:1058A0004631FFF708FC05465B20FFF704FC06467F
:1058B0005820FFF700FCBA2872D005E0200800202D
:1058C000EC0500203070050004F084FDB4F9DC1014
:1058D0000020FFF77EFCB4F900110220FFF779FCED
:1058E000B4F9EC100420FFF774FCB4F9E4100620BE
:1058F000FFF76FFCB4F9E8100820FFF76AFC94F892
:10590000F0100A20FFF744FCB4F978110C20FFF7DF
:1059100060FCB4F97C110E20FFF75BFCB4F97E113A
:105920001020FFF756FC94F855111220FFF730FCB9
:1059300094F854111320FFF72BFC4FF461631420EB
:10594000D4F85811B1FBF3F1C9B2FFF721FCFFF70E
:105950001FFDFFF737FDFFF74FFDB4F914112E209F
:10596000FFF737FCB4F916113020FFF732FC94F83A
:1059700018113220FFF70CFC02AA4FF07E5342F8B8
:10598000043D34210D48FFF7BFFDFFF789FCFFF709
:105990004DFDFFF779FDFFF705FC02B0BDE8F08192
:1059A0005920FFF788FB03288ED1FFF79AFB45EAC1
:1059B0000625ADB2854287D1EFE700BFC4040020C1
:1059C000F6EE007AB4EEE70AF1EE10FA07B514D459
:1059D000F0EE007AB4EE670AF1EE10FAC8BFB0EE4E
:1059E000670A02AA22ED010A34210548FFF78CFD5F
:1059F000FFF7D8FB03B05DF804FBB0EE670AF0E7F1
:105A0000C40400202B4B93F85421AAB1032813D8C7
:105A1000DFE800F002233241B3F93821C3F8DC207B
:105A2000B3F84021A3F81621B3F84821A3F81421B4
:105A300093F85021C3F8E820D3F8DC20A3F86421C0
:105A4000D3F8E82083F86621B3F81621A3F868217B
:105A5000B3F81421A3F86A217047B3F93A21C3F8C7
:105A6000DC20B3F84221A3F81621B3F84A21A3F8A9
:105A7000142193F85121DDE7B3F93C21C3F8DC2070
:105A8000B3F84421A3F81621B3F84C21A3F814214C
:105A900093F85221CEE7B3F93E21C3F8DC20B3F8E6
:105AA0004621A3F81621B3F84E21A3F8142193F848
:105AB0005321BFE720080020144BB3F92E2107EE35
:105AC000902AF8EEE77AF4EEC07AF1EE10FA18DADE
:105AD000B3F92C2107EE902AF8EEE77AF4EEC07ABB
:105AE000F1EE10FA0FDAB3F92A3107EE903AF8EE38
:105AF000E77AB4EEE70AF1EE10FA94BF0120002035
:105B00007047032070470220704700BF2008002024
:105B10003F4B93F8192193F85C0152B193ED470A7A
:105B2000B4EE400AF1EE10FA03D6FF2805D1FFF7D4
:105B3000C3BFFF2808BF002070470328F7D8DFE85D
:105B400000F002133251B3F92A21B3F93231D21ADB
:105B500007EE902AF8EEE77AB4EEE70AF1EE10FAD3
:105B600094BF012000207047B3F92A21B3F9301106
:105B70000A4407EE902AF8EEE77AB4EEE70AF1EE6F
:105B800010FA40DCB3F92C21B3F93431D21A07EE04
:105B9000902AF8EEE77AB4EEE70AF1EE10FA94BF35
:105BA000022001207047B3F92C21B3F932110A44C5
:105BB00007EE902AF8EEE77AB4EEE70AF1EE10FA73
:105BC00023DCB3F92E21B3F93631D21A07EE902A2D
:105BD000F8EEE77AB4EEE70AF1EE10FA94BF03208C
:105BE00002207047B3F92E21B3F934311A4407EE7D
:105BF000902AF8EEE77AB4EEE70AF1EE10FACCBF9D
:105C0000022003207047002070470120704700BF2A
:105C10002008002010B5FFF77BFFFFF7F3FE044CD0
:105C200084F85C0117F046FAC4F8600110BD00BFAB
:105C30002008002038B50446FFF76AFF0C4B93F8A4
:105C40005C2182420ED0D3F858513DB1D3F8601197
:105C50004FF47A72611A6A43914203D383F85C016C
:105C6000C3F8604193F85C01BDE83840FFF7CABE55
:105C700020080020064A00231370064A92F80611F5
:105C8000054A1170054A1360054A1360704700BF4A
:105C9000D104002020080020D0040020C8040020E7
:105CA000CC04002070B5414D414C95F80621267872
:105CB0004049B24205D0022E12D1012A10D10A70F9
:105CC000227095F8E0309BB1531E022B10D80123AF
:105CD0000B70394B64201860384B00221A6070BD7D
:105CE000032A02D00AB1632AEAD100230B70E7E746
:105CF00095F8043133B1304B002018602F4B0870F9
:105D00001860ECE795F86F31002BF4D1042AF2D03B
:105D1000632A02D10B701846E1E7032A03D101235D
:105D20000B706420DBE795F8F020D5F8E430224CC6
:105D3000012A26D18342D5F8E8600A70B8BF03462D
:105D40009E42A8BF1E46236873B91C4D2B6823B919
:105D500017F0B0F900F2EE20286017F0ABF92B68CD
:105D60009842DED300232B6020686FF00202331AC2
:105D70009342B8BF1346032BD4BFC0180330206032
:105D8000ADE79842B7DB03F109029042C4BF01239B
:105D90000B700B781BB9094A23601360BBE7D5F879
:105DA000E8608642A8BF0646CDE700BF2008002075
:105DB000D0040020D1040020C8040020CC0400201E
:105DC000FFF770BF014B1860704700BFDC04002074
:105DD00070B5324C2368002B43D0002501262021CA
:105DE000206809F002F9206806FA05F10368C94342
:105DF000C9B21B689847206803685B6B98474FF4EB
:105E0000967017F00FF9206803680122DB6B2021E0
:105E10009847206803681B699847F8B120680368B1
:105E20005B6998470023C0B21A1D40FA02F2D207FC
:105E300011D41B4A02EB8505EC5617F03BF9194AC1
:105E400092F90030A3420ED0174B14701860BCB109
:105E50000023184670BD0133042BE5D10135042D14
:105E6000BDD10024E9E75CB10F4A1268801A2828E6
:105E7000EED90E4A92F90010A142E9D01470E8E779
:105E80000A4A92F90030002BE2D0074B1B68C01A77
:105E90002828DDD900231370DBE700BFDC040020D5
:105EA000BC300200D2040020D4040020D80400201A
:105EB000084611461AF0C4BF08461AF0FDB9084654
:105EC0001AF0F2B94FF6FF7399421FBF0368CA096F
:105ED00003EBC20301F07F011ABF586800EBC10059
:105EE000002070477FB505460E46144610460AB19D
:105EF0001BF0B0F8CDE9014000228DF80C2004AA77
:105F00002B4612E9070043F8046B83E80700284694
:105F100004B070BD10B50446B4F5803F08460BD2FE
:105F20000921611808D203681B68984700B910BDA1
:105F30000123C4808380FAE70020F8E70A680B4653
:105F4000526801461846104770B5044616460D467D
:105F5000084609B11BF07EF8C4E9005026722046BD
:105F600070BDB2F5803FF8B506460F461546046889
:105F700007D2236809329B682046984708B1C5803C
:105F8000F8BD236820465B68394698470123337182
:105F90000020F5E738B5C588044601F12C002946F4
:105FA000FFF790FFA580206008B1C388E38038BD6B
:105FB00038B5002383604368044643B905681F2051
:105FC0002968FFF7A7FF08B901232B71606038BD6E
:105FD00038B50D464168044649B18268CB889A427B
:105FE00005D1520001320068FFF7BBFF60606368B3
:105FF00023B1A2681344511CA1601D7238BD2DE964
:10600000F0470379DA0705460C4610D500688B681F
:10601000002263B1984232D183882168013B9BB250
:10602000838023B9036842B31360FFF787FF2B799E
:10603000DB0608D52E8804F12C003146FFF742FF1D
:10604000A38E0380A6862B7913F0600F1CD02E88B8
:106050004FF6FF7A04F12C09564513D031464846D5
:10606000FFF730FF21460746B0F80680FFF7C7FF6D
:10607000A38E3B80A6864646EEE7A360D5E71A4688
:106080001B68C6E72E806E8000232B71BDE8F08769
:1060900038B5184B1A68184B1AB392F9002002B39E
:1060A000164C2268EAB192F90020D2B1144D2A6848
:1060B000BAB192F90020A2B10122124912481A7015
:1060C0000BF0B0FC2A6821680F480BF0AEFC0F21E2
:1060D0000D480BF0B7FC0D490B48BDE838400BF0FC
:1060E0008FBC00221A700A490A48BDE8384015F0F2
:1060F00095BF00BF5C0B0020F8040020600B00205F
:10610000580B0020A03102000005002099830000F8
:10611000B0310200381A002000F10C01074AC162B8
:106120004FF480210260016300224FF6FF7102717B
:106130008260818680F83C20C1877047180000206B
:1061400000F10C01074AC1624FF480210260016333
:1061500000224FF6FF7102718260818680F83C2038
:10616000C1877047180000202DE9F047002504463C
:106170000E46A946A28C276AABB29A420FD907EB0A
:10618000C3089A46D8F8041019B1336830465B68E2
:10619000984747F83A900135C8F80490EAE7002399
:1061A000A384BC424FF6FF73238507D0336839467A
:1061B0005B683046984704232462E384BDE8F08797
:1061C00038B505680446A06828B10368A36029466D
:1061D000FFF7B4FEF7E704F10C002168FFF7C4FFF6
:1061E000204638BD30B5022303710A7903461C1AD4
:1061F000E5B2AA4204D90D682C5703F8014BF6E723
:106200000023835430BDC0E90012072282600122BE
:1062100002737047C0E900120E22826001220273ED
:106220007047C0E900120B2282600122027370479E
:10623000C0E900120D228260012202737047C0E99A
:10624000001209228260012202737047C0E9001225
:1062500003228260012202737047C0E900120A2201
:106260008260012202737047C0E900120F2282602F
:10627000012202737047C0E90012052282600122E8
:1062800002737047C0E90012042282600122027387
:106290007047C0E900120C2282600122027370472D
:1062A000C0E9001206228260012202737047C0E931
:1062B00000120822826001220273704710B5D1E9F2
:1062C0000041C260042202610122C0E9014102755D
:1062D00010BDC0E9001202228260012202737047E1
:1062E00010B5D1E90041C260032202610122C0E978
:1062F0000141027510BD10B5D1E90041C260022212
:1063000002610122C0E90141027510BD8B8C30B5DC
:10631000013B0D6A9AB205EBC204616849B163881A
:1063200035F832509D4204D95D1C11EBC3016580E4
:1063300005D1002303604FF6FF73838030BD0160F9
:1063400003EBC213F9E72DE9F3470E8D4FF6FF7308
:106350009E4205460C4617460CD0314604F12000FB
:10636000FFF7B0FD038823852860AE80284602B081
:10637000BDE8F0878B8C53B16E463046FFF7C6FF01
:10638000009B23B196E8030085E80300EEE7A28CAA
:10639000E38C934217D1B3F5007F3FD05B009EB2F0
:1063A000236A3968A3424FEAC6022FD10B683846E8
:1063B00011469847804688B32022214619F0F7FFFE
:1063C000C4F82080E684B4F82480D4F820A008F132
:1063D00001039BB2B3F5007FA3843B680CBF7F260B
:1063E0008026F1001B68384698470AEBC809002848
:1063F00008BF00260023C9F8040021462AF83860A7
:106400002846A9F80230FFF781FFAFE7D1F80880EE
:1064100038461946C04780460028D1D100232B605A
:106420004FF6FF73AB80A1E737B50A6804460D4607
:1064300068460C31FFF787FF009B4FF6FF7233B9B8
:106440000121297120462360A28003B030BD0021C4
:10645000DA801971BDF80420F4E7F7B50446684600
:106460000F46FFF7E1FF009E66B16188BDF804505A
:106470004FF6FF73994208D007F12C00FFF722FD79
:10648000C5806580304603B0F0BD2580F9E737B59B
:106490000A6804460D4668460C31FFF754FF009B1E
:1064A00043B9012223604FF6FF732A71A38020466F
:1064B00003B030BDBDF804202360A280F7E707B524
:1064C0000368082203EBC101684619F070FF9DEDD7
:1064D000000B03B05DF804FB2DE9F74F91F9003094
:1064E0002B2B044632D02D2B31D10131012591F9CE
:1064F0000020A2F13003DBB2092B01D92E2A28D1CA
:10650000DFF874B28846002000214FF0993A4FF02E
:106510000A0EC4461CF9013BA3F13002D2B2092A8B
:106520001DD88B4508BF824520D30EFB01F3A0FB8D
:106530000E0119440023D2B2DF43D6438F4208BF75
:10654000864213D380185941E046E2E70131002525
:10655000CDE700232370204603B0BDE8F08F2BB9B0
:10656000E5B1B1F1004F08BF01280FD3784F0023E8
:106570004FF0FF368F4208BF864203F1010910D267
:1065800000230A2219F072FC4B46F3E70223404233
:10659000237061EB4101C4E90201DCE703232370AE
:1065A000F9E7A3EB080202EB0806434618F901CB12
:1065B000ACF13007FFB2092F36B2F4D9BCF12E0F7F
:1065C0001DD1C4460FF28019D9E900894FF00A0E97
:1065D00063460CF1010C1F78303FFFB2092F0ED833
:1065E000894508BF8045F3D3A0FB0E230EFB013382
:1065F000D01906F1FF3643F1000136B2E8E793F90E
:10660000002022F02002452A67D193F901202D2A8B
:1066100025D19F1C4FF0010C00224FF00A083B4689
:1066200017F901EBAEF1300E5FFA8EF9B9F1090FEF
:1066300026D808FB02E29319B3F59A7FEFDDBCF18F
:10664000000F13D0DFED437A9FED437A002D18BF82
:10665000F0EE477A01232370C4ED027A7BE72B2A00
:1066600014BF5F1C9F1C4FF0000CD5E700222DB11A
:106670003A4B04212170C4E902236CE7384BF8E758
:10668000BCF1000F00D0524293F90030002B7FF490
:1066900060AF164406F126034C2B27D8002908BF0B
:1066A000B0F5000F22D2002E07EE900AD4BF2D4B7A
:1066B0002D4BF8EEE77AD8BF764203F1180286B187
:1066C0009A420CD0F10748BF93ED007A4FEA660674
:1066D00048BF67EE877A0433F1E70022D4E7DFEDA5
:1066E000237A002DB6D0F1EE677AB3E718F0F0FF09
:1066F000002ECABF1E4B1F4B019380468946DCBF4C
:10670000019376420027B6B1092F10D0F3070BD5BD
:10671000394601A8FFF7D3FE4046494653EC102BFB
:1067200019F00CF88046894676100137EBE7DFF860
:106730004C904FF0000815B109F10043994604232D
:106740002370C4E9028906E79899999999990100FB
:10675000FFFF0F0000000000000000800000F0FFBD
:106760000000F07FE0300200F83002000000C07F3F
:106770005831020010310200999999190000F87FF0
:1067800070B5006878B1C4884B689C42F9D10D6837
:1067900000239C4207D9C218EE5692F9082096426F
:1067A000EFD10133F5E770BD2DE9FF418268436801
:1067B000032A04460D4603F1080319D818460021A0
:1067C000D7B2C61AF6B2BE4206D210F9016B002E3D
:1067D00008BF41F00101F4E751B98DF80C102846CB
:1067E00001A9CDE90132FFF7FDFC04B0BDE8F0815D
:1067F00000269E542768D4F808808DF80C6001A903
:1068000007F10800CDE90138FFF7BAFF68B9424641
:1068100061683846FFF7A5FB23689A6802609860B4
:10682000666005232B712860DFE78388013383804E
:10683000F7E72DE9F0418AB0064601A880E80E008E
:10684000109F0B46002954D09DF80C5035B10422FE
:106850003271316028460AB0BDE8F081029C032CF9
:1068600017D82A465FFA84FEA1EB030C5FFA8CFC72
:10687000E64507D911F901CBBCF1000F08BF42F082
:106880000102F1E72AB901463046FFF7ABFC0125CA
:10689000E0E707C8BE460DF11C0C5EF8088B04ABA0
:1068A00083E807008CE8070061467046FFF768FF41
:1068B00030B1838801338380052333713060E6E78C
:1068C00041462046FFF726FB10B901233B71C1E783
:1068D000079D00F1080200239C4203D0E956D154E1
:1068E0000133F9E7044400232372BB680360B860F6
:1068F000E2E70D46AEE770B586B003AC84E80E0063
:106900000A9D064640B12946FFF779FB009594E8B9
:106910000E003046FFF78DFF06B070BD30B589B070
:1069200002AB83E806000D46044608B11AF092FB5C
:10693000CDE9054000238DF81C30039B009308AB84
:1069400013E90E002846FFF7D6FF09B030BD70B539
:1069500088B002AB83E806000D46039E044608B1EA
:106960001AF078FBCDE9054000238DF81C30009625
:1069700008AB13E90E002846FFF7BDFF08B070BD55
:106980002DE9F0438BB001AC84E80E00129D0E4659
:1069900071B907914FF6FF73ADF82030079820B119
:1069A00007A82946FFF7F6FA07980BB0BDE8F08371
:1069B0000488DDF80880214605F12C00FFF782FAF3
:1069C000ADF81840059008B3C388ADF81A3001241B
:1069D000A1460027059999B35CB30B79042B18D015
:1069E000052B19D0022B1FD1002207A8FFF7ACFA04
:1069F000089A42451DD1079900239A4222D016F9E0
:106A000003C0C856844514D10133F6E74FF6FF732F
:106A1000DBE701220968E8E70B68DA888DF8247063
:106A20000833CDE90732E3E7CDE907778DF8249005
:106A3000DEE7294605A884F00104FFF7ABFAC9E7B1
:106A40000791A7E705AA92E8030007AB83E80300D4
:106A5000A4E730B5054689B00C46084609B11AF0DE
:106A6000F9FACDE9024000248DF8104002AA95F809
:106A70003C3007CA202B08BF05F1380405AB83E87A
:106A800007004CB100950ECB2046FFF779FF003090
:106A900018BF012009B030BD2046F8E7F0B50479F1
:106AA00005460E46018814F0100085B003D002F1AF
:106AB0002C00FFF707FA0C2C4FD01AD8042C49D021
:106AC00003D8022C40D0002035E0062C5BD00A2CE5
:106AD000F9D12A6800233168087800218B4208BF69
:106AE000824258D3994208BF90422CBF0120022015
:106AF00021E01A2C44D020D80E2CE4D1286818F0BC
:106B0000C5FD04460D463368187818F09DFD06460D
:106B10000F4602460B462046294619F081F8002808
:106B200039D132463B462046294619F097F80028CD
:106B300014BF0220012005B0F0BD1C2C1DD01E2C5E
:106B4000C1D1D0E90045DEE70022294601A8FFF7C0
:106B5000FBF9B8E701222968F8E72A68D3173168FA
:106B600008780021824273EB010414DB904271EB40
:106B70000303ACBF01200220DDE7D0E90023EEE7EC
:106B8000D0E90023A7E733682A781B789A4202D31A
:106B900003D90220CFE70420CDE70120CBE7FFFF98
:106BA00030B585B001466846FFF796FC9DF8003089
:106BB000013B032B48D8DFE803F00218242FDDED5A
:106BC000027A9FED257AF4EEC77AF1EE10FA3BDBFC
:106BD0009FED227AF4EEC77AF1EE10FA34D8FDEE8A
:106BE000E77A17EE900A05B030BDDDE9020110F139
:106BF000004241F10003012B08BF002A28BF0020FA
:106C0000F1E7DDE9020100238B426FF0004208BF8B
:106C1000824238BF0020E6E7DDE902450022104B42
:106C20002046294619F010F80028DCD008A3D3E943
:106C300000232046294618F0FDFF0028D3D0204627
:106C4000294619F02BF8CEE70020CCE7AFF30080FF
:106C50000000C0FFFFFFDF41000000CFFFFFFF4E3D
:106C60000000E0C1FFFFFFFF38B5057904460B4681
:106C7000018815F0100003D003F12C00FFF722F972
:106C8000023D1C2D65D8DFE805F02E6432340F6418
:106C90006464116415643764646464646464646483
:106CA0006464176422644C00207838BD206820EAB0
:106CB000E070FAE72068F8E7D0E9000100238B4292
:106CC0006FF0004208BF824238BF0020EDE7D0E9F4
:106CD000000110F1004241F10003012B08BF002A1E
:106CE00028BF0020E1E72046FFF75AFFDDE72068D4
:106CF000FAE720680830F7E7D4ED007A9FED187ABC
:106D0000F4EEC77AF1EE10FA23DB9FED167AF4EE7B
:106D1000C77AF1EE10FA1CD8FDEEE77A17EE900A6A
:106D2000C3E7D0E9004500220F4B2046294618F062
:106D30008BFF0028B9D008A3D3E9002320462946B9
:106D400018F078FF0028B0D02046294618F0A6FF9A
:106D5000ABE70020A9E700BF0000C0FFFFFFDF4155
:106D6000000000CFFFFFFF4E0000E0C170B5446897
:106D70000A44D0E90053AB4207D28A4205D011F948
:106D8000015B5E1C46601D70F3E782681B1B1344A9
:106D9000836070BD38B5054608460C461AF05AF9AE
:106DA000214602462846FFF7E1FF38BD2DE9F041B4
:106DB00086B00DF11604054616461F46A04630461D
:106DC00039460A22002319F051F8303204F8012D17
:106DD0000023304639460A2219F048F806460F4685
:106DE00056EA0703EBD1A8EB040221462846FFF739
:106DF000BDFF06B0BDE8F081D0E9002393423EBF5D
:106E00005A1C42601970836834BF01220022134467
:106E1000836070472DE9F0410D4622211646044655
:106E2000FFF7EAFFDFF850802E44B54215D015F980
:106E3000011B104B13F9027CAFB1023313F9032C81
:106E40008A42F7D15C212046FFF7D6FFF9B20DE068
:106E500041462046FFF79EFFE7E722212046FFF745
:106E6000CBFFBDE8F0810029F2D0C9B22046FFF780
:106E7000C3FFDAE7743E0200813E020070B5002ACB
:106E80001D4675F100030646144605DA2D21FFF76D
:106E9000B3FF644265EB450522462B463046FFF7BB
:106EA00085FF70BD437D13B504466BB901220DF11A
:106EB0000701006915F03AF950B19DF8073023EA4F
:106EC000E37323750123637594F9140002B010BDB8
:106ED0004FF0FF33F3E738B5044600252046FFF7AF
:106EE000E1FF0A2806DC092808DA48B101232373E8
:106EF00000200AE00D2801D02028F7D16575EDE7C4
:106F0000237B002B14BF0220012038BD70B505463D
:106F10004C1E002614F9010F50B12846FFF7C2FF9E
:106F200028B194F90030834203D16E75F2E7022054
:106F300070BD0320FCE72DE9F04387B006460D46FF
:106F4000FFF7B0FF002427462F28E3B20BDD3928D6
:106F50000BDC0134402C23D033197775D8763046BA
:106F6000FFF7A0FFF0E72B28F3D0A0F12D02D2B25B
:106F7000012AEED920F0200252B2452AE9D033444A
:106F800000221A7706F11C0102A8FFF7A5FA9DF866
:106F90000830013B032B62D8DFE803F03924043EBC
:106FA0003F23ECE7DDE90489B9F1010F08BFB8F12F
:106FB000000F07D20A232B71C5F80080002007B00C
:106FC000BDE8F083B1696846FFF761FA009B0BB931
:106FD0000420F4E71A222A71BDF804202A80C3E9AC
:106FE0000089EBE7DDE9048918F1004249F100036B
:106FF000012B08BF002A01D20C23DCE7B1696846E7
:10700000FFF745FA009B002BE2D01C22E3E70E239A
:107010002B71049B2B60D1E7DDE90489494640468A
:1070200018F084FE074618F031FB02460B46404636
:10703000494618F0EBFD18B10E232B712F60BDE708
:10704000B1696846FFF723FA009B002BC0D01E22CF
:107050002A71BDF804202A80C3E90089AEE7032025
:10706000ADE770B550F8046B07C88CB003AB16F1F0
:10707000380583E8070002D100200CB070BD93E80A
:10708000070096F83C30202B06AC09AB18BF002552
:1070900084E8070083E80700002DEDD000960ECBB2
:1070A0002846FFF76DFCE8E710B50446FFF7D9FF67
:1070B000216808B1FFF7D8FD10BD70B50646FFF78F
:1070C000D0FF054688B10479018814F0100003D080
:1070D00030682C30FEF7F6FE0C2C29D006D8062C92
:1070E00024D00A2C24D07CB3012070BD1A2C24D0CB
:1070F0000BD80E2CF8D1D5ED007AF5EE407AF1EEF2
:1071000010FA14BF01200020EFE71C2C15D01E2C14
:10711000EAD100220023D0E900014FF0010418F069
:1071200075FD08B14FF00004E0B2DEE72878DCE737
:107130002868003018BF0120D7E7D0E900231343A7
:1071400014BF01200020D0E72046CEE7FFFFFFFF5D
:107150002DE9F04F5BEC10AB8BB007460D4610EEFF
:10716000102A5B4610EE100A594618F04FFD30B950
:10717000AF493846FFF70EFE0BB0BDE8F08F002296
:1071800000235046594618F041FD68B952465B4607
:107190005046594618F01CF902460B4650465946CF
:1071A00018F034FD0028E3D1002200235046594650
:1071B00018F036FD30B12D213846FFF71DFE0BF1DA
:1071C00000439B46012301932C460A2324B1019AD4
:1071D0005A43013C0192F9E791A3D3E900235046B9
:1071E000594618F031FD00286AD0DFF850924FF070
:1071F00008084FF48076414604A8CDF81090FFF7B8
:107200005EF952465B4651EC100B18F013FD78B155
:10721000884B0493414604A8FFF751F9504659465C
:1072200053EC102B18F08AFA344482468B4624B271
:1072300018F1FF384FEA6606DDD2CDF80C80002247
:1072400000235046594618F009FD00283DD076A38A
:10725000D3E900235046594618F0ECFCA8B30023AC
:107260000293DDE90223A3EB020919F0800F2CD170
:107270000DF128086F4B48F8183D49464046FFF786
:107280001EF900226C4B51EC100B18F057FA5246C5
:107290005B4618F0E3FC78B1684B049349464046DE
:1072A000FFF70DF95046594653EC102B18F046FAEB
:1072B000A41B82468B4624B2029B76100133CFE793
:1072C00008234FF480760393B9E75046594618F0E7
:1072D0000DFD0A2206460346092B08D9B3FBF2F33B
:1072E000013D0199B1FBF2F16DB20191F4E7304635
:1072F00018F0AAF902460B465046594618F066F8AF
:1073000080460198894618F09FF902460B46404690
:10731000494618F013FA8046894618F0E7FC824681
:1073200018F092F902460B464046494618F04EF8CE
:107330000B46024618F04CF818F0D8FC019B0AEBFB
:107340000008434508D8013694B1092E10D90134FC
:1073500024B24FF0000801260A22B8FBF2F302FB28
:10736000138141B9002D06DD013D98466DB2F4E769
:107370004FF00008F0E70DF126010A22B6FBF2F308
:1073800002FB1366303601F8016D1E46002BF5D165
:107390000DF12606721A3846FFF7E8FCEDB108AA8F
:1073A0002B4611464FF00A0C013B5BB2581C09D02A
:1073B000B8FBFCF00CFB108808F1300802F8018DD6
:1073C0008046F1E7EDB2EB434D1B2E2205F8012C70
:1073D00019445A423846FFF7C9FC002C3FF4CCAEA2
:1073E00065213846FFF708FD002CA5B205DA2D21EE
:1073F0003846FFF701FD6D42ADB231460A22B5FBBA
:10740000F2F302FB1355303501F8015D9DB2002DFA
:10741000F5D1721A3846FFF7A9FCADE6AFF300804C
:1074200000000000D0126341F168E388B5F8E43E43
:10743000693E020010310200000024405831020071
:107440002DE9FF41057906460C46018815F010002C
:1074500003D002F12C00FEF735FD0C2D00F09980D1
:1074600016D8042D00F0878006D8022D78D0032D81
:1074700000F08880504998E0062D00F093807DD37D
:107480000A2DF7D1326800232046FFF78FFC1DE05C
:107490001C2D00F0848006D80E2D0ED01A2DE9D1B7
:1074A000D0E90023F0E7202D35D0402D12D01E2D3D
:1074B000E0D1092190ED000B05E0306818F0E6F806
:1074C00041EC100B06212046FFF742FEA06804B0F5
:1074D000BDE8F0815B212046FFF78EFC35884FF632
:1074E000FF76B54212D0E768294607F12C00FEF777
:1074F000E9FC05463A462146FFF7A2FFED88B54272
:10750000EFD02C212046FFF777FCEAE75D212046EB
:10751000FFF772FCDAE77B212046FFF76DFC4FF6A0
:10752000FF7735880126BD4218D0D4F80C80294653
:1075300008F12C00FEF7C6FC054642462146FFF73F
:107540007FFFED88BD4206D0002E0CBF2C213A21D2
:107550002046FFF751FC86F00106E4E77D21D6E7DF
:107560000022314601A8FEF7EFFCDDE901122046BA
:10757000FFF750FCAAE701223168F3E73168CA88B7
:107580000831F4E731682046CA880831FFF7EEFB7E
:107590009CE73268D3172046FFF770FC96E7D0E9E6
:1075A0000023F8E7337823B104492046FFF7F2FBC4
:1075B0008CE70349F9E700BF693E0200883E0200FC
:1075C0008D3E020030B587B06C4684E80300144657
:1075D0001D46E318CDE9023400230A46CDE9043103
:1075E00040B102A9FFF72CFF854284BF002323543A
:1075F00007B030BD02A80249FFF7CCFB0498F3E7BF
:10760000693E02002DE9F0438FB003AC84E80E0020
:10761000169E009694E80E000746FFF7B1F978B978
:1076200094E807000BAD85E80700314607A8FEF790
:10763000FBFEDDF81C80B8F1000F04D100242046C9
:107640000FB0BDE8F083314609A8FEF7EDFE099CB6
:10765000002CF3D0009695E80E004046FFF7E9F8BD
:107660000028EBD0BDF82850A8F806507988BDF85E
:1076700020904FF6FF73994207D006F12C00FEF7D9
:1076800021FCA0F806907D80D9E7A7F80090FAE7E2
:1076900070B5446886B014B9002006B070BD00F122
:1076A0000C02866807CA03AB83E80700024600287D
:1076B000F2D0217961B9202121714FF6FF7121802B
:1076C0006180039200960ECB2046FFF79BFFE4E714
:1076D0002029F6D0E0E738B504460D46FFF7D8FF7D
:1076E000A168044628B1FEF78AFC062323712570A1
:1076F000012038BD37B504460D46FFF7C9FFA36822
:10770000CDE9000302AB284613E90600FFF706F9AE
:10771000A06810B1007980F0010003B030BD70B5F1
:10772000036813F1380686B002D1002006B070BDA0
:10773000021D07CA03AC84E8070002460028F4D003
:1077400093F83C1071B9202183F83C104FF6FF717B
:10775000198759870392009394E80E003046FFF78B
:1077600051FFE3E72029F5D0DFE738B504460D46A1
:107770000846FFF7D4FF2B68C4E90003204638BD54
:1077800073B56C4605460E4601462046FFF7EDFFF1
:10779000304694E80600FFF7C1F8286810B1007978
:1077A00080F0010002B070BD10B52DED028B82B0EB
:1077B00001466846B0EE408AFFF7D7FF009C64B1EF
:1077C00020460199FEF71BFC0E23237184ED008AED
:1077D000012002B0BDEC028B10BD2046F9E737B5A1
:1077E0000D4601466846FFF7C0FF009C4CB120469D
:1077F0000199FEF704FC0A2323712560012003B0E0
:1078000030BD2046FBE737B50D4601466846FFF719
:10781000ACFF009C4CB120460199FEF7F0FB0C2315
:1078200023712560012003B030BD2046FBE737B54A
:107830000D4601466846FFF798FF009C4CB1204674
:107840000199FEF7DCFB0C2323712560012003B0B6
:1078500030BD2046FBE730B50D4689B001460446F1
:1078600003A8FFF782FF2A68AB680398CDE90523D8
:1078700000238DF81C30049B009308AB13E90E0025
:10788000FFF739F8206810B1007980F0010009B0E5
:1078900030BD37B50D4601466846FFF766FF009CD0
:1078A0004CB120460199FEF7AAFB062323712570EF
:1078B000012003B030BD2046FBE737B50D46014639
:1078C0006846FFF752FF009C4CB120460199FEF735
:1078D00096FB0A2323712560012003B030BD2046AA
:1078E000FBE730B585B005466846FEF7FBFA68460B
:1078F000FFF715FF0099044638B1FEF780FB2023FF
:1079000023714FF6FF7323806380009B2C60284611
:107910006B6005B030BDFFFF2DE9F047ADF5387D58
:107920005C4D019008AC07468A46914680215A4A30
:107930000095984618A8594BC19E19F0DDFA2046CB
:10794000FEF7FEFB564A214638A8FEF79BFC51463F
:1079500038A8FFF715FF294602A805AD14F06AFC08
:1079600002A9284614F094FC4E49284614F0E6FC7F
:10797000394614F0E3FC4C4A0746214638A8FEF786
:1079800042FC394638A8FFF766FF284614F007FC8A
:1079900002A814F004FC454A214638A8FEF780FCF2
:1079A000494638A8FFF7ECFE414A214638A8FEF7C1
:1079B0002AFC414638A8FFF7E3FE214638A83D4A95
:1079C000FEF767FCC09938A8FFF7DAFE46B12146FA
:1079D00038A8394AFEF717FC314638A8FFF7D0FE21
:1079E000364A214638A8FEF774FCC29938A8FFF73A
:1079F000C7FE214602A8324AFFF773FF314A02A9A7
:107A000038A8FEF76DFC234938A8FFF773FE244A17
:107A100002A938A8FEF752FC2B4938A8FFF76AFEE6
:107A20002A4A02A938A8FEF766FC294938A8FFF7B8
:107A300061FE284A02A938A8FEF752FC264938A858
:107A4000FFF758FE254A02A938A8FEF754FC24493E
:107A500038A8FFF74FFE16ABC5E9003438AA95E801
:107A600003004FF40073FFF7ADFD002300930122E4
:107A700018A91C480AF02BF938A91A4814F0AFFAD3
:107A800018480AF0FEFC2046FEF79AFB0DF5387DFB
:107A9000BDE8F087D23D0200BB3D0200AD3D0200D3
:107AA000614E0200E33D0200E53D0200ED3D0200B3
:107AB000F43D0200FC3D0200093E0200113E0200BE
:107AC000143E0200183E02001C3E02002D3E020041
:107AD000303E0200353E0200393E0200453E0200C3
:107AE000483E0200000500202DE9F047ADF5387D45
:107AF000534E019008AC80460D4692469946514A35
:107B0000514B524F0096802118A819F0F5F92046E4
:107B1000FEF716FB3A46214638A8FEF7B3FB294686
:107B200038A8FFF72DFE05AD314602A814F082FB00
:107B300002A9284614F0ACFB4549284614F0FEFB88
:107B4000414614F0FBFB434A8046214638A8FEF725
:107B50005AFB414638A8FFF77EFE284614F01FFB6B
:107B600002A814F01CFB3C4A214638A8FEF783FB10
:107B7000514638A8FFF704FE384A214638A8FEF7D8
:107B80008FFB494638A8FFF7FBFD354A214638A848
:107B9000FEF79FFBC09938A8FFF7F2FD214602A827
:107BA000304AFFF79EFE304A02A938A8FEF798FB3C
:107BB000314638A8FFF79EFD3A4602A938A8FEF7DD
:107BC0007DFB2A4938A8FFF795FD294A02A938A864
:107BD000FEF791FB274938A8FFF78CFD264A02A93A
:107BE00038A8FEF77DFB254938A8FFF783FD244A16
:107BF00002A938A8FEF77FFB224938A8FFF77AFDD3
:107C000016ABC5E9003438AA95E803004FF40073B9
:107C10001D4DFFF7D7FC00230093012218A9284629
:107C20000AF055F838A9284614F0D9F928460AF080
:107C300028FC2046FEF7C4FA0DF5387DBDE8F08734
:107C4000D23D02004C3E0200AD3D0200614E0200FA
:107C5000E33D0200E53D0200633E0200ED3D02000F
:107C6000113E0200143E0200183E02001C3E0200BB
:107C70002D3E0200303E0200353E0200393E020039
:107C8000453E0200483E0200000500202DE9F04F6D
:107C90002DED048BADF5397D704D019008AC80461B
:107CA0008B46924680216E4A0095994618A86D4BE6
:107CB000C79FC89EF0EE608AB0EE418AB0EE409A4F
:107CC00019F01AF92046FEF73BFA674A214638A810
:107CD000FEF7D8FA594638A8FFF752FD294602A800
:107CE00005AD14F0A7FA02A9284614F0D1FA5F49AD
:107CF000284614F023FB414614F020FB5C4A8046E2
:107D0000214638A8FEF77FFA414638A8FFF7A3FDC1
:107D1000284614F044FA02A814F041FA554A2146C4
:107D200038A8FEF7A8FA514638A8FFF729FD524AAD
:107D3000214638A8FEF7B4FA494638A8FFF720FDD7
:107D40004E4A214638A8FEF781FAB0EE490A38A813
:107D5000FFF72AFD4A4A214638A8FEF777FAB0EE27
:107D6000680A38A8FFF720FD464A214638A8FEF7E2
:107D700089FAB0EE480A38A8FFF716FD214638A860
:107D8000414AFEF786FAC69938A8FFF7F9FC47B1D1
:107D9000214638A83D4AFEF736FA394638A8FFF79B
:107DA000EFFC46B1214638A8394AFEF792FA31462F
:107DB00038A8FFF7E5FC214602A8364AFFF791FDF7
:107DC000354A02A938A8FEF78BFA244938A8FFF7EC
:107DD00091FC254A02A938A8FEF770FA2F4938A865
:107DE000FFF788FC2E4A02A938A8FEF784FA2D492D
:107DF00038A8FFF77FFC2C4A02A938A8FEF770FAD2
:107E00002A4938A8FFF776FC294A02A938A8FEF7C4
:107E100072FA284938A8FFF76DFC16ABC5E90034A3
:107E200038AA95E803004FF40073FFF7CBFB00235B
:107E30000093012218A9204809F049FF38A91E48DB
:107E400014F0CDF81C480AF01CFB2046FEF7B8F9E8
:107E50000DF5397DBDEC048BBDE8F08FD23D0200FD
:107E6000913D0200AD3D0200614E0200E33D020083
:107E7000E53D0200633E0200ED3D0200563D02007A
:107E80005E3D0200A83D0200FC3D0200093E0200EA
:107E9000113E0200143E0200183E02001C3E020089
:107EA0002D3E0200303E0200353E0200393E020007
:107EB000453E0200483E02000005002038B5044659
:107EC0000D46FEF7EFFFA8424FF0000004BF6075BB
:107ED000012038BDF0B585B00F466946064681E8F9
:107EE0000C0014460AB3194610461D46FEF787F8E3
:107EF00016F1004247F10003012B08BF002A05D20A
:107F00000C2323712660012005B0F0BD02A829468C
:107F1000FEF7BDFA02980028F6D01C232371BDF8A5
:107F20000C302380C0E90067EDE71046ECE71FB591
:107F30000C4601466846FFF718FC009B0293019B24
:107F4000039304AB13E90C0020460021FFF7C2FFA6
:107F500004B010BD7F2837B50C4605D841B2204685
:107F6000FEF736F803B030BD00238DF8003000F086
:107F70003F03800982B263F07F031F2A8DF801302E
:107F8000C3B20DD863F03F038DF802300DF1030545
:107F900015F9011D0029E5D02046FEF719F8F7E78D
:107FA000C0F3891003F03F0363F07F030F288DF8BF
:107FB0000230C3B205DC63F01F038DF8033001AD5E
:107FC000E6E703F03F03801163F07F0360F00F00EA
:107FD0008DF803308DF804000DF10505D8E7FFFF9B
:107FE0002DE9F0478046FEF75DFF0024384E88F803
:107FF0001540074625464046FEF754FF8742014696
:1080000088F815505CD010B90220BDE8F0875C28D4
:1080100052D14046FEF746FF0028F5D075283CD1E6
:1080200088F815504FF004094FF0000A4046FEF75B
:1080300039FF0028E8D04028CBBF20F0200230389C
:10804000373AC3B2C8BFD3B20F2B01D90320DCE744
:1080500009F1FF3943EA0A1319F0FF091FFA83FAFD
:1080600088F81550E2D10AF520539BB2B3F5806F22
:1080700002D2CAF30904BEE70AF510539BB2B3F566
:10808000806F3DBFCAF3090A4AEA842A0AF58030A4
:1080900050464146FFF75EFFADE700239A57991916
:1080A000002AD3D0904203F10203F7D191F90110D5
:1080B0000029CBD088F815504046FDF789FF9AE794
:1080C000D8F80430002B0CBF042000209DE700BF2F
:1080D0006E3E02002F280EDD392803DD5E2803DD09
:1080E0007A2803DC01207047402804DD5A28CCBFE1
:1080F0000020012070470020704770B50446FDF74E
:1081000057FF2046FEF7CEFE27281ED022281CD07F
:108110002046FEF7C7FE0546FFF7DCFF98B10026B4
:10812000294620466675FDF753FF2046FEF7BAFE46
:108130000546FFF7CFFF0028F2D16368002B0CBF84
:108140000420002000E0032070BD2046FFF748FF18
:10815000FAE72DE9F04F5FFA83F98DB004460D463A
:10816000B9F1000F00F0858000234375FEF7B3FEE0
:10817000B8B97D212046FFF7A1FE88B90DF124088A
:108180002046FFF7BAFF60B92046FEF7A4FE064678
:1081900038B93A212046FFF791FE28B9032000E0C4
:1081A00000200DB0BDE8F08FD4E9013213448DF802
:1081B0002C601E72D4E901320833CDE90932A3697B
:1081C000009398E80E002846FEF7DAFB07460028E1
:1081D0004BD1D4F818B005A85946FEF725F9059EED
:1081E0000EB90420DDE7594607A8FEF71DF9079FE1
:1081F000002FF6D0BDF820A0A6F806A06988BDF82B
:1082000018304FF6FF7291422DD00BF12C000393E2
:10821000FDF758FE039BC380A5F802A03146204617
:10822000FEF7C2FA09F1FF334FF00002394620464B
:1082300000F022F80028B4D12046FEF74CFE0028BA
:10824000AFD17D212046FFF739FE0028A8D12C218F
:108250002046FFF733FE0028A0D02046FEF73BFE65
:1082600000288DD09DE72B80D6E7A169FDF7C7FEDA
:10827000D8E7052095E7FFFFF8B505460E461F46EF
:10828000FEF729FE0446002858D12846FEF70AFECC
:1082900066286DD013DC272803D05B2817D022284E
:1082A0006BD12846FDF784FE2846FFF799FE044669
:1082B000002843D131462846FEF776FA3EE074287E
:1082C0004DD07B283CD06E2857D130494CE040231C
:1082D0003371FFB24FF6FF7333807380002F51D09C
:1082E0006C752846FEF7F7FD044638BB5D2128462D
:1082F000FFF7E4FD08BB013FA9693046FEF7ADF882
:108300000146002840D03B464FF000022846FFF7C8
:10831000B3FF044690B92846FEF7DDFD044668B970
:108320005D212846FFF7CAFD38B92C212846FFF702
:10833000C5FD0028E0D1032400E000242046F8BD5C
:10834000202333714FF6FF73338073804FF00002A8
:108350003B4631462846FFF7FCFE0446EEE706237F
:1083600033710B49012333702846FEF7CFFDF4E744
:108370000623337134700749F6E731462846FEF785
:10838000DAFDEAE70524D9E70424D7E7693E0200CD
:10839000883E02008D3E020070B5B2B0A74904A825
:1083A0000BAC09F02FFB2046FDF7B6FE0B990EA88B
:1083B000FDF7DAFE00230B9D8DF830300D9828B1C3
:1083C00003680D932946FDF7B9FDF7E79B4B8DF840
:1083D0006800CDE91B401D908DF878001F938DF843
:1083E00081004FF00A034FF0000219A91BA8219445
:1083F000FFF742FF054640B99DF980302BB19DF84B
:10840000683013F0080F18BF03251C9818B11B9B88
:108410001968FDF793FD25BB89492046FEF719FB36
:10842000F8B1874A214607A8FDF725FF85491BA813
:1084300013F000FF1BA904A813F0C0FF05461BA8FA
:1084400013F0ADFEADB107A8FEF72EFEA0F1C803F4
:10845000B3F52F7F054604D8FCF7CAFE7A4BC3F864
:10846000DC502046FDF7ACFE04A813F098FE32B0B5
:1084700070BD76491BA813F0DDFE1BA904A813F0FC
:108480009DFF05461BA813F08AFE6DB107A8FEF7F5
:108490000BFE431FB3F5157F0546E2D2FCF7ACFE99
:1084A000694BC3F80051DCE769491BA813F0C2FE11
:1084B0001BA904A813F082FF05461BA813F06FFE4A
:1084C00065B107A8FEF7F0FD431E632B0546C8D82B
:1084D000FCF796FE5C4BC3F8EC50C2E75D491BA865
:1084E00013F0A8FE1BA904A813F068FF05461BA8FB
:1084F00013F055FE7DB107A8FEF7D6FD64280546AA
:10850000AFD8514ED6F8E8309842AADCFCF77CFE92
:10851000C6F8E450A5E750491BA813F08BFE1BA931
:1085200004A813F04BFF05461BA813F038FE7DB1DD
:1085300007A8FEF7B9FD6428054692D8424ED6F842
:10854000E43098428DDBFCF763FEC6F8E85088E71C
:1085500042491BA813F06EFE1BA904A813F02EFFBE
:1085600005461BA813F01BFE4DB107A8FEF7A5FD9D
:108570000546FCF751FE344B83F8F05071E738495B
:108580001BA813F057FE1BA904A813F017FF0546FC
:108590001BA813F004FE6DB107A8FEF785FD431E6E
:1085A000772B05463FF65DAFFCF76DFE264BC3F813
:1085B000785156E72B491BA813F03CFE1BA904A8D1
:1085C00013F0FCFE05461BA813F0E9FDA5B107A8B2
:1085D000FEF76AFDA0F13203B3F5E17F05463FF6F1
:1085E00040AF194EB6F97E3198423FF73AAFFCF7EB
:1085F0004EFEA6F87C5134E71B491BA813F01AFE67
:108600001BA904A813F0DAFE05461BA813F0C7FD4A
:1086100065B307A8FEF748FDA0F13203B3F5E17F8B
:1086200005463FF61EAF084EB6F97C319842FFF67C
:1086300018AFFCF730FEA6F87E5112E700050020C7
:10864000733A0200E03602002008002005370200DD
:10865000333702006A3702008D370200B03702005C
:10866000E8370200103802004D380200A4491BA868
:1086700013F0E0FD1BA904A813F0A0FE05461BA8FB
:1086800013F08DFD6DB107A8FEF70EFD02283FF631
:10869000E8AEC5B22846FCF75FFE9A4B83F8555109
:1086A000DFE699491BA813F0C5FD1BA904A813F028
:1086B00085FE05461BA813F072FD4DB107A8FEF715
:1086C000FCFC0546FCF751FE8E4B83F85451C8E67E
:1086D0008E491BA813F0AEFD1BA904A813F06EFE73
:1086E00005461BA813F05BFD85B107A8FEF7DCFC6F
:1086F000632805463FF6B5AEC0B2FCF73FFE4FF427
:108700006160804B6843C3F85801AAE680491BA802
:1087100013F090FD1BA904A813F050FE05461BA8FA
:1087200013F03DFD6DB107A8FEF7BEFC00F1640338
:10873000FA2B3FF696AE734BA3F82801FCF728FE00
:108740008FE674491BA813F075FD1BA904A813F04C
:1087500035FE05461BA813F022FD5DB107A8FEF704
:10876000A3FC00F16403FA2B3FF67BAE654BA3F844
:108770002A01E3E768491BA813F05CFD1BA904A8C4
:1087800013F01CFE05461BA813F009FD5DB107A8F8
:10879000FEF78AFC00F16403FA2B3FF662AE594BF8
:1087A000A3F82C01CAE75D491BA813F043FD1BA9E0
:1087B00004A813F003FE05461BA813F0F0FC5DB1FE
:1087C00007A8FEF771FC00F16403FA2B3FF649AEEF
:1087D0004C4BA3F82E01B1E751491BA813F02AFD19
:1087E0001BA904A813F0EAFD05461BA813F0D7FC4B
:1087F0005DB107A8FEF758FC32283FF632AE414B78
:10880000A3F83001FCF7DEFD2BE646491BA813F068
:1088100011FD1BA904A813F0D1FD05461BA813F0F8
:10882000BEFC4DB107A8FEF73FFC32283FF619AE5B
:10883000344BA3F83201E5E73B491BA813F0FAFCDF
:108840001BA904A813F0BAFD05461BA813F0A7FC4A
:108850004DB107A8FEF728FC32283FF602AE294B9F
:10886000A3F83401CEE731491BA813F0E3FC1BA9A0
:1088700004A813F0A3FD05461BA813F090FC4DB10E
:1088800007A8FEF711FC32283FF6EBAD1D4BA3F80D
:108890003601B7E726491BA813F0CCFC1BA904A896
:1088A00013F08CFD05461BA813F079FC75B107A8E1
:1088B000FEF7FAFBA0F1C803B3F52F7F3FF6D1AD69
:1088C000104BA3F83801FCF797FDCAE519491BA81E
:1088D00013F0B0FC1BA904A813F070FD05461BA8FB
:1088E00013F05DFC45B307A8FEF7DEFBA0F1C8035B
:1088F000B3F52F7F3FF6B5AD024BA3F83A01E2E79F
:108900000039020020080020CB3802009438020011
:10891000793A0200873A0200923A0200A03A020035
:10892000AF3A0200BE3A0200CA3A0200D93A020047
:10893000303902005B39020083491BA813F07AFC2E
:108940001BA904A813F03AFD05461BA813F027FC49
:1089500065B107A8FEF7A8FBA0F1C803B3F52F7F08
:108960003FF67FAD794BA3F83C01ACE778491BA8F3
:1089700013F060FC1BA904A813F020FD05461BA8FA
:1089800013F00DFC65B107A8FEF78EFBA0F1C8033C
:10899000B3F52F7F3FF665AD6C4BA3F83E0192E730
:1089A0006C491BA813F046FC1BA904A813F006FD94
:1089B00005461BA813F0F3FB5DB367490BA8FEF750
:1089C00048F800283FF44DAD64490BA8FEF741F884
:1089D00000283FF446AD604A0BA91BA8FDF752FCE6
:1089E0001BA8FEF761FB5D4A05460BA91BA8FDF716
:1089F00049FC1BA8FEF758FB072D3FF632AD0728B0
:108A00003FF62FAD514B2B4483F84400FCF748FC54
:108A100027E553491BA813F00DFC1BA904A813F06C
:108A2000CDFC05461BA813F0BAFB95B107A8FEF7CD
:108A30003BFBA0F12803C82B3FF613AD434BB3F922
:108A400016219042BFF60DADA3F81401FCF738FDD6
:108A500007E544491BA813F0EDFB1BA904A813F07C
:108A6000ADFC05461BA813F09AFB95B107A8FEF7CD
:108A70001BFBA0F12803C82B3FF6F3AC334BB3F933
:108A8000142190427FF7EDACA3F81601FCF71CFD12
:108A9000E7E435491BA813F0CDFB1BA904A813F08C
:108AA0008DFC05461BA813F07AFBDDB107A8FEF785
:108AB00004FB00283FF4D5AC244D002385F86E312B
:108AC000C5F8743195F80631042B7FF4CAAC022343
:108AD00085F80631012385F80C3114F0EBFAC5F85E
:108AE0001001BEE421491BA813F0A4FB1BA904A894
:108AF00013F064FC05461BA813F051FB002D3FF456
:108B0000B0AC1B490BA8FDF7A4FF00283FF4A9ACAB
:108B1000174A0BA91BA8FDF776FB1BA8FEF7A1FAC5
:108B200001231B9A8DF8043000283FF49AAC01AB66
:108B300002A9CDE90232FDF7B1FF01287FF491AC23
:108B400005F020FB8DE400BF8839020020080020DA
:108B5000B3390200E93A0200F03A0200F53A0200A5
:108B6000E0390200173A020080350200FA3A0200AA
:108B7000093B020010B5054C204608F00BFA2146CF
:108B80000348BDE8104008F035BF00BFCC05002009
:108B9000000500202DE9F04F2DED028BD9B008AC77
:108BA0000BAA734BE2624FF48022214623602263BA
:108BB00000234FF6FF756F4A237118A8A36084F84D
:108BC0003C30A586E587FDF78DF918A8FEF7A7FDCF
:108BD0001899074628B1FDF712FA40233B713D80F2
:108BE0007D80DFF8B481DDF860904FF0000AC34665
:108BF00098F800305FFA8AF6B34206AD40F28B80F7
:108C0000002F00F0868049463846FDF726FC0346D3
:108C100050B149460390FDF7F2F9039B20221A71E7
:108C20004FF6FF721A805A80C5E90039CDE919392B
:108C3000514B1B9305231C9318A801238DF8743006
:108C4000FEF726FD1A99039028B1FDF7D8F9039B8A
:108C50000A221A711E602946484A18A8FDF72EFB01
:108C600018A8FEF715FD1A9ACDE9040204AB08EB2B
:108C7000061093E806004C30FDF769FED5E90023A5
:108C8000CDE919233E4B1B9306231C9301238DF83A
:108C9000743018A808EB860393ED018AFEF7F8FC00
:108CA0001A99054628B1FDF7AAF90E232B7185ED17
:108CB000008A14F0FFF90BEB86030125596A8DF841
:108CC0007450DDE90623401A40F6B8318842CDE9F8
:108CD00019232C4B1B9388BF00214FF0090398BF29
:108CE000012118A81C93FEF7F6FCDDE906239BF88A
:108CF00044108DF87450CDE91923234B1B930D2399
:108D00001C938B1B5942594118A8FEF7E4FCAA4456
:108D10006EE73B4688E71D4A214618A8FDF7ABFAE7
:108D200098F8001018A8FEF75AFD16ABC5E90034F4
:108D300018AA95E803004FF48073FEF743FC002364
:108D40001A46009305461249124808F0C0FF2A4609
:108D500018A9104808F00CFF0E4809F092FB2046B5
:108D6000FDF72EFA59B0BDEC028BBDE8F08F00BFC5
:108D7000180000203D3D0200153D0200614E02003A
:108D80001B3D0200E13B0200223D0200303D02009B
:108D9000363D020000050020200800202DE9F041AA
:108DA000D8B008AC074620460E469046FDF7B4F909
:108DB0002C4A214618A8FDF773FA18A904A8FEF753
:108DC000D4FC049D3DB105992846FDF718F906230A
:108DD0002B7185F80080244A214618A8FDF752FA25
:108DE000394618A8FEF7CCFC204A214618A8FDF702
:108DF0000AFA314618A8FEF7C3FC14F05BF91C4AC6
:108E00002146064618A8FDF744FA18A906A8FEF759
:108E1000ACFC069D35B107992846FDF7F0F80A230A
:108E20002B712E6016ABCDE9023402A918AA4FF4BB
:108E3000807303C9FEF7C6FB00231A46009305465C
:108E40000C490D4808F043FF2A4618A90A4808F0C3
:108E50008FFE094809F015FB2046FDF7B1F958B01F
:108E6000BDE8F081333C0200113B0200163B0200DA
:108E70001E3B02002B3B0200000500202DE9F041C3
:108E80002DED028BADF5956D1AACC24BC24D236032
:108E90001DABE3622E784FF48023002023634FF64E
:108EA000FF732071A060A38684F83C00E387002E46
:108EB00000F0088295F84470BE4240F2028205EB51
:108EC000870393ED018AB4EE488AF1EE10FA80F13F
:108ED000FC8105EB870714F0EDF87E6A801B40F6F5
:108EE000B836B0428CBF00260126AC4AAC4F2146B2
:108EF0002AA8FDF788F995ED350A2AA8FEF754FC53
:108F0000A84A21462AA8FDF785F995ED350A2AA831
:108F1000FEF74AFCA44A21462AA8FDF782F995EDFE
:108F2000360A2AA8FEF740FCA04B2B9310232C9363
:108F300095F8E0102A9401232AA88DF8B430FEF7A2
:108F4000A8FC9B4B95F8E0202146002A08BF1F464D
:108F50002AA8984AFDF76CF939462AA8FEF710FCB2
:108F6000954A21462AA8FDF76AF9B0EE480A2AA8D0
:108F7000FEF71AFC914A21462AA8FDF74BF9314623
:108F80002AA8FEF786FC8E4A21462AA8FDF75EF93C
:108F9000D5F880112AA8FEF736FC8A4A21462AA86D
:108FA000FDF75BF9D5F8F4102AA8FEF72CFC864AE9
:108FB00021462AA8FDF743F9D5F880112AA8FEF723
:108FC00022FC824A21462AA8FDF74EF9D5F88011E5
:108FD0002AA8FEF718FCFBF741FD7D4A2146B0EEBA
:108FE000408A2AA8FDF716F9B0EE480A2AA8FEF72B
:108FF000DBFB784A21462AA8FDF73DF92AA902A8F9
:1090000095F80661FEF7B1FBDDE90212CDE9041225
:1090100004AB0CCB00213046FEF75CFF6E4807F036
:10902000D1F96E4A214607462AA8FDF72BF92AA94D
:1090300006A8FEF79AFB069E36B107993046FCF764
:10904000DEFF0C233371376095F80631002B00F0FA
:109050003E81032B00F03D81012B00F03C81022B6F
:1090600000F03B815E4E5F4A042B18BF16465E4AF5
:1090700021462AA8FDF7F1F831462AA8FEF780FB21
:109080005A4B2B9315232C9395F86E112A94012398
:109090002AA88DF8B430FEF7FCFB95F86E0188B174
:1090A000D5F87831002B40F31A8114F003F8D5F885
:1090B00078314EF660215943D5F87431C01A081A38
:1090C00020EAE07001274A4B2B934FF016084EF62A
:1090D00060264FF47A7190FBF6F690FBF1F12AA826
:1090E0002A94CDF8B0808DF8B470FEF78CFB414B1C
:1090F0002A9431462AA8CDE92B388DF8B470FEF7B2
:1091000082FB33463C4A202112A817F0F5FE0CAE34
:109110003A4B2B932AA91D2330462C932A948DF881
:10912000B470FEF722FB96E803000AAB83E8030065
:1091300012A893E80600FDF70AFC314A21462AA846
:10914000FDF76FF8D5F8FC102AA8FEF7B6FB2D4AFC
:1091500021462AA8FDF781F8D5F808112AA8FEF7BC
:10916000ACFB294A21462AA8FDF777F8D5F810115B
:109170002AA8FEF7A2FB254A21462AA8FDF751F8A6
:10918000D5F874112AA8FEF798FB214A21462AA88F
:1091900040E000BF1800002020080020903B0200A3
:1091A000383B0200983B0200A73B0200B33B0200A1
:1091B000803E0200C43B0200D23B0200DC3B0200C6
:1091C0002C330200EB3B0200F63B0200003C0200A5
:1091D000103C02001D4E0200081500201F3C02003A
:1091E000843B02007C3B0200284E0200243C02002B
:1091F0003A3C0200513C0200683C02007D3C020007
:109200009B3C0200A73C0200B23C0200BD3C0200B5
:10921000C93C0200FDF73DF895F818112AA8FEF7A1
:1092200086FE304A21462AA8FDF733F82AA90EA85F
:1092300095F80461FEF799FADDE90E12CDE91012F6
:1092400010AB0CCB30460021FEF744FE264B2B938F
:10925000B5F914112A9411232AA82C938DF8B4700F
:10926000FEF7E5FA214B2B93B5F916112A94122338
:109270002AA82C938DF8B470FEF7D9FA28ABCDE963
:10928000083408A92AAA4FF4806303C9FEF79AF9A3
:1092900000231A46009305461549164808F017FDA5
:1092A0002A462AA9134808F063FC124809F0E9F895
:1092B0002046FCF785FF0DF5956DBDEC028BBDE8F2
:1092C000F08106469FED0C8A0FE606460DE60B4E32
:1092D000CDE60B4ECBE60B4EC9E60B4EC7E60020A3
:1092E000F0E600BFD63C0200E33C0200F53C020081
:1092F000083D0200000500200000C07F6D3B020019
:10930000B03F0200723B0200773B0200F0B5ADF2C5
:109310005C4D06AC09AAE2624FF48022A64DA74B31
:1093200022634FF6FF722360A2860023E287214664
:10933000A34A237116A8A36084F83C30FCF7B7FF5A
:10934000D5F8DC1016A8FEF75EFA9E4A214616A84C
:10935000FCF7ADFFD5F8EC1016A8FEF754FA9A4AC0
:10936000214616A8FCF74FFFD5F8E41016A8FEF723
:109370004AFA964A214616A8FCF745FFD5F8E810A8
:1093800016A8FEF740FA924A214616A8FCF757FFA6
:10939000D5F8001116A8FEF736FA8E4A214616A80F
:1093A000FCF74DFFD5F8781116A8FEF72CFA8A4A7B
:1093B000214616A8FCF77BFFB5F97C1116A8FEF72D
:1093C00036FA864A214616A8FCF771FFB5F97E11D8
:1093D00016A8FEF72CFA824A214616A8FCF767FF6A
:1093E00095F8F01016A8FEF7FAF97E4A214616A85D
:1093F000FCF717FF95F8551116A8FEF7F0F97A4A11
:10940000214616A8FCF70DFF95F8541116A8FEF793
:1094100040FA764AD5F85861214616A8FCF71DFF98
:1094200016A904A8FEF7A1F9049F5FB10599384673
:10943000FCF7E5FD0A233B714FF46163B6FBF3F6DD
:10944000B6B23E606A4A214616A8FCF722FFB5F97B
:10945000281116A8FEF7EBF9664A214616A8FCF774
:10946000EEFEB5F92A1116A8FEF7E1F9624A214687
:1094700016A8FCF70EFFB5F92C1116A8FEF7D7F9C0
:109480005E4A214616A8FCF7D3FEB5F92E1116A8A0
:10949000FEF7CDF95A4A214616A8FCF7C9FEB5F9E0
:1094A000301116A8FEF7C3F9564A214616A8FCF754
:1094B000D4FEB5F9321116A8FEF7B9F9524A214681
:1094C00016A8FCF7B5FEB5F9341116A8FEF7AFF9EA
:1094D0004E4A214616A8FCF79DFEB5F9361116A88E
:1094E000FEF7A5F94A4A214616A8FCF7BDFEB5F9D4
:1094F000381116A8FEF79BF9464A214616A8FCF734
:10950000C8FEB5F93A1116A8FEF791F9424A21466C
:1095100016A8FCF7A9FEB5F93C1116A8FEF787F9C5
:109520003E4B179310231893B5F93E11169401235F
:1095300016A88DF86430FEF77AF9394A214616A844
:10954000FCF7A7FE95F8181116A8FEF7F0FC354AAF
:10955000214616A8FCF7ABFEB5F9141116A8FEF7C4
:1095600066F9314A214616A8FCF769FEB5F91611CD
:1095700016A8FEF75CF914ABCDE9023402A916AACD
:109580004FF4806303C9FEF71DF800231A460093C9
:1095900005462649264808F09AFB2A4616A924487B
:1095A00008F0E6FA224808F06CFF2046FCF708FEB7
:1095B0000DF25C4DF0BD00BF200800201800002017
:1095C000E136020034370200523D02005A3D0200EB
:1095D000623D02006C3D0200113802004E3802006C
:1095E000B137020001390200CC380200763D02009A
:1095F0007A3A0200883A0200933A0200A13A020045
:10960000B03A0200BF3A0200CB3A0200DA3A020056
:10961000313902005C39020089390200B439020094
:10962000C93C0200E1390200183A0200813D020003
:109630000005002070B5D4B004AC214D2046FCF7E5
:109640006BFD21461F4A14A8FCF71CFE95ED470A46
:1096500014A8FEF7A9F821461B4A14A8FCF7F6FD4A
:1096600095ED480A14A8FEF79FF82146174A14A85A
:10967000FCF708FE95ED490A154D14A8FEF794F87D
:1096800012ABCDE9023402A914AA4FF4807303C9C6
:10969000FDF798FF00231A46009306460D49284619
:1096A00008F015FB324614A9284608F061FA28464E
:1096B00008F0E7FE2046FCF783FD54B070BD00BF04
:1096C00020080020D73B020072360200BE3602009E
:1096D00000050020433D02002DE9F04FA3B004F047
:1096E0000BFE0446002840F07783AC4B1B78002B20
:1096F00000F07283AA4E96F88C31002B00F06C8338
:10970000A84806F0C7FD032840F0668313F0D2FC9A
:1097100096F88C310546002B00F0D182A14806F066
:10972000B9FD032840F0CB829F4808F0E8F90028F3
:1097300040F0C5829D4A136847F22F51EB1A8B42C5
:1097400040F2BD829A4B15601968974840F25B72EF
:1097500008F066FE002800F0B282DFF8E0B3954919
:109760009148DFF8DC83944DDFF8D893934FDFF80E
:10977000D8A3224608F0D6FC914B924A92499348CE
:10978000CDF808B0CDF804800095FEF7C5F8904BF1
:109790008C4A904990480097CDE90149FEF7BCF802
:1097A0008E4B884A8E498F480097CDE901438E4BF6
:1097B000FEF7B2F88D4B02938D4B01938D4B0093C6
:1097C000804A8D4B8D498E48FEF7A6F88D4BCDF81B
:1097D00000A0CDE901437B4A8B4B8C498C48FEF7B6
:1097E0009BF8CDF800A08B4B764A8B498B48CDE98E
:1097F000014BFEF791F88A4B02938A4B714A8A49D2
:109800008A48CDE900A38A4BFEF786F8894B02937C
:10981000894B0193894B00936A4A894B89498A484D
:10982000FEF77AF8894B674A89498A48CDE90143AE
:10983000894B0093894BFEF76FF8894BCDF800A058
:10984000CDE901435F4A874B87498848FEF764F8B2
:10985000874B0093874A5B4B87498848FEF744F95A
:10986000A246CDF814B00AF1010B5B46844A1021E0
:1098700006A817F041FB5B46824A20210AA817F090
:109880003BFB5346804A402112A817F035FB7F4B23
:109890000095CDE901837E4A12AB0AA906A8FEF71E
:1098A0003BF8BBF1040FDA46DDD17A4B7A4A7B49AB
:1098B0007B480095CDE901837A4BFEF72DF87A4B72
:1098C00002937A4B744A7A497A48CDE900737A4B0D
:1098D000FEF722F8794B0293794B0193794B009371
:1098E0006D4A794B79497A48FEF716F8059BDFED0A
:1098F000790A9FED790A794A79497A480095CDE944
:109900000183B7EE001A784BFEF7C0F9774B02934C
:109910004FF00008B1EE041A484B0093B0EE410A34
:10992000DFED730A704B734A73497448CDF80480B5
:10993000FEF7ACF9724BDFED730A734A7349744852
:109940000095B7EE001AB0EE410ACDE90183664BEF
:10995000FEF79CF90097B7EE001ADFED6A0A9FED5B
:109960006D0A614B6C4A6D496D48CDE90189FEF77E
:109970008DF9B7EE001ADFED630A9FED660A0097D6
:10998000594B684A68496948694FCDE90189FEF732
:109990007DF9684B0093684A534BD7E0F8040020E8
:1099A000200800200815002000050020FC040020ED
:1099B0005C0B0020CD320200073302001940020088
:1099C000DA320200083D0200F1320200903B020050
:1099D0000B3302001E3302002C3302005A33020004
:1099E00049330200F63B0200303302009633020096
:1099F0009F330200AF3302006A3302007E3302005D
:109A00008A330200DE330200B3330200C83302009F
:109A1000D3330200ED33020007340200284E020067
:109A2000523402005D3402003C340200243C020047
:109A300017340200AA340200B9340200FF440200C5
:109A400063340200893402003A3C02000935020006
:109A5000E8340200513C0200563D0200C2340200CC
:109A60005E35020013350200403502007D3C0200E5
:109A7000B1350200763502009935020081350200C9
:109A8000C0350200C9350200D7350200F0350200AA
:109A9000363D020036360200433D02001C3602000D
:109AA00029360200083602007636020088360200A7
:109AB000593602006A36020046360200C3360200FA
:109AC000CD3602005B46020091360200A536020048
:109AD000B63602000000614400004843D63602005A
