:10400000007F002045EE0100EDEC010041EE0100D3
:1040100041EE010041EE010041EE010041EE0100E0
:1040200000000000000000000000000041EE010060
:1040300041EE01000000000041EE010041EE0100F0
:104040000000000000000000000000000000000070
:104050000000000000000000000000000000000060
:104060000000000000000000000000000000000050
:104070000000000000000000000000000000000040
:104080000000000000000000000000000000000030
:104090000000000000000000000000000000000020
:1040A0000000000000000000000000000000000010
:1040B0000000000000000000000000000000000000
:1040C00010B5054C237833B9044B13B10448AFF352
:1040D00000800123237010BD0004002000000000B8
:1040E000B4D7030008B5034B1BB103490348AFF332
:1040F000008008BD0000000004040020B4D70300C5
:104100002DE9D04357EC106B234C2DED028B10EEB4
:10411000102A3B4610EE100A394694ED358A21F0FC
:10412000C7F948B118EE100A20F0D0FEBDEC028BA2
:1041300041EC100BBDE8D083B4EE488AF1EE10FAE2
:104140001ED618EE100A20F0C1FE0FA3D3E90023FB
:1041500020F014FF0EA3D3E90023804689463046A1
:10416000394620F00BFF02460B464046494620F0F8
:104170004FFD21F0FBF9C4F8D400D4F8D400D3E704
:1041800030463946F5E700BF9A9999999999E93FE0
:104190009A9999999999C93F300A00202DE9F843D5
:1041A0002DED028B1EF094FB06466B486B4C0FF016
:1041B000D5FB02F005FC08F0F3FB1EF089FB054679
:1041C00002F0ECFC074658B108F080F9FFF798FFC1
:1041D000D4F88011384609F06DF9614B01221A704C
:1041E000604F3B6840F6B832EB1A934205D908F0AD
:1041F0002DFB284601F0F2FF3D605B4F3B68EB1A58
:10420000B3F5FA7F02D908F0BBFA3D60574F284654
:1042100008F004FE3B684EF65F22EB1A934202D987
:1042200008F0ACFA3D6008F051F951EC100BB0EE1B
:10423000408AF0EE608A21F099F9B0EE480AF0EE7B
:10424000680AC4F8D800FFF75BFF51EC100B21F0AF
:104250008DF9C4F8D40000F0D7FCC4F8F40002F0E3
:10426000E7F8074602F046FA41F22433C4F88071B9
:10427000E5501EF02DFB05461EF02AFB80460EF091
:104280001BF981460EF04EFAB9F1000F03D0384900
:1042900040460EF03FF90EF03FFA78B941F228336C
:1042A000E35C5BB10EF008F940B11EF011FB8046F3
:1042B0000CF00AFB2F4940460EF02CF90EF02CFAB8
:1042C00078B941F22833E35C5BB10EF0F5F840B108
:1042D0001EF0FEFA804606F01DFA274940460EF011
:1042E00019F90EF019FA70B91EF0F2FA80460EF0C4
:1042F000E3F8814607F04AFDB9F1000F03D01F49EA
:1043000040460EF007F91EF0E3FA41F23433401B49
:10431000E05041F23833E258904288BFE050D4F880
:10432000D40020F0D3FD164B41EC100B1878394621
:1043300009F09EFF0EF020FC1EF0CAFA41F22C3369
:10434000801BE050BDEC028B41F23033E2589042CA
:1043500088BFE050BDE8F883F8290020300A00202B
:104360000000002024040020200400201C04002061
:10437000F491020059C70200019202000692020065
:10438000C404002010B51B4C1B4821461DF0ABFA9D
:1043900021461A481DF0A7FA214619481DF0A3FA34
:1043A000214618481DF09FFA214617481DF09BFA38
:1043B000214616481DF097FA214615481DF093FA3C
:1043C000214614481DF08FFA214613481DF08BFA40
:1043D000214612481DF087FA214611481DF083FA44
:1043E000214610481DF07FFA21460F48BDE81040D5
:1043F0001DF079BAA5A10200A00400202804002025
:104400004C04002040040020340400205804002004
:104410008804002094040020B8040020AC0400208C
:10442000700400207C0400206404002008B51448B7
:104430001DF00EFA13481DF00BFA13481DF008FA90
:1044400012481DF005FA12481DF002FA11481DF03D
:10445000FFF911481DF0FCF910481DF0F9F910485A
:104460001DF0F6F90F481DF0F3F90F481DF0F0F9B3
:104470000E481DF0EDF90E48BDE808401DF0E8B902
:10448000640400207C04002070040020AC040020A0
:10449000B804002094040020880400205804002060
:1044A00034040020400400204C0400202804002094
:1044B000A004002008B54FF4E1311D481CF02EF98E
:1044C0004FF4FA701EF0C0F9012106201EF014F816
:1044D000012106201EF028F802F096F814481DF07D
:1044E000F5F8144912481DF001F902F0F1FA08F04C
:1044F0005BFB01F025FA08F0C1FA01F05FFE00F065
:1045000025FB01F0BDFE0C4802F01CFB08F010FF7B
:104510000EF064F80EF000F918B90BF07DF802F017
:104520003DFD4FF47A510548BDE808400FF082BACE
:10453000103000200B92020034210020F8290020C6
:104540002DE9F0475D4C089F94F8CCA005469046B5
:104550009946BAF1000F02D094F8E0604EB1584A83
:1045600000231360574A84F87031C4F87431136023
:1045700057E094F80611481E012800F28380104687
:10458000194620F095FFA8B9B4F97C0120F08CFC05
:1045900042464B464FF0010620F080FF00B9064628
:1045A000B4F97E0120F080FC42464B46F6B220F082
:1045B00061FF08B94FF0000A94F87031CBB9404B55
:1045C000002E3DD01A6802B91F601A6843F6972181
:1045D000BA1A8A4225D900221A603A4B84F86E2111
:1045E0000121C4F8747184F870111A6094F8703164
:1045F000BBB1D4F87401D4F87811324ABAF1000F83
:1046000020D0136803B91760136823B1FB1A47F26F
:104610002F56B34219D84EF660233F1A4B439F42A0
:104620001BD294F86F1189B304230620012184F86A
:1046300006311DF079FF0020C4F88001BDE8F08745
:104640001E60D3E7C2F800A0DEE7002384F87031D3
:1046500084F86E31C4F8743189E7042384F8063194
:10466000012384F86E3184F86F31154B002584F8EE
:10467000F85084F8075184F80C5184F870511D608B
:104680001560CEE704297FF46AAFCAE794F80631D3
:10469000013B022B88BF012106201DF045FF002DA4
:1046A00009DDD4F8E400A842C8DCD4F8E800A84248
:1046B000A8BF2846C2E70020C0E700BF300A00209C
:1046C000D8040020E80400202DE9F04F0B4687B005
:1046D0001546024682468B4620F0EAFE20B10025B0
:1046E000284607B0BDE8F08FA54A02921368A54C92
:1046F000002B00F08980A5EB0308B8F57A7FC0F0A5
:104700008880A14BD3E9006732463B4630463946A4
:1047100020F0CEFE002840F0DE81404620F0B4FBC1
:1047200000229A4B20F054FD002200238046894647
:1047300020F0B4FE002800F0CE8132463B465046C1
:10474000594620F063FA42464B4620F041FD0646AA
:104750000F4694F8F030002B56D1D4F8DC90DFF8F7
:104760004C82A9F1140020F09FFB02460B465046F4
:10477000594620F075FE78B17FA3D3E90023304677
:10478000394620F06DFE38B1D8ED007A9FED807A81
:1047900077EE877AC8ED007A09F1140020F084FBE7
:1047A00002460B465046594620F078FE78B172A377
:1047B000D3E900233046394620F070FE38B1D8EDF9
:1047C000007A9FED737A77EEC77AC8ED007A98ED9C
:1047D000000AF6EE007AB4EEE70AF1EE10FA64D4BD
:1047E000F0EE007AB4EE670AF1EE10FAC8BFB0EE50
:1047F000670A684E684A336888ED000AEB1A9342EC
:1048000002D901F0B1FB35605F4BC3E900AB029BFD
:104810001D60D4F8EC0020F047FB00225F4B20F035
:10482000ADFB002200238046894620F023FE18B10C
:10483000DFF87C914FF00008D4F8DC0020F034FB66
:1048400042464B4606460F4620F0E0F94B46CDE97E
:10485000020142463046394620F0DAF994F8063132
:104860004F4E022BCDE9040122D100224D4BDDE950
:10487000020120F0CBF902460B465046594620F083
:10488000EFFDA8B1336803B935603368ED1A43F61C
:1048900097239D420ED90123434A84F80631002311
:1048A00033601370D4F880511AE7B0EE670AA0E7BE
:1048B0000023336094F8F030012B2BD1DDE9022383
:1048C0005046594620F0D6FD10B1D4F8E85007E71D
:1048D000DDE9042350465946D4F8E45020F0D4FDD5
:1048E00000287FF4FDAEDDE9040120F0F7FD074666
:1048F000DDE9020120F0F2FD59460646504620F05F
:10490000EDFD0095D4F8E8303A4631461CF056FCEF
:104910000546E5E6002B7FF4E2AEDDE902235046D2
:10492000594620F09DFD10B11F4B01221A70D4F89A
:10493000DC0020F0B9FA52465B4620F09BFD10B136
:10494000194B00221A70DDE902235046594620F027
:104950009BFD78B3DDE904235046594620F08AFDDB
:1049600040B3114B1B78002B3FF4B9AED4F8E450A0
:10497000B6E600BFAFF300809A9999999999A93F3B
:10498000E4040020300A00200800002000408F408E
:104990000AD7A33BDC0400207FEE36000000E03F96
:1049A000C804002000002440C504002004000020AA
:1049B0000000F03FDDE902235046594620F050FD4B
:1049C000002840D00022454B4046494620F066FD75
:1049D00018B9DFF808914FF0000852465B46DDE950
:1049E000020120F013F942464B4620F0F1FB3C4B0C
:1049F000064618680F4620F069FA02460B46304614
:104A0000394620F0BBFA0022364B06460F4620F00E
:104A100045FD08B1334F0026D4E93950401B20F042
:104A200043FA32463B4620F0A9FA064628460F468E
:104A300020F03AFA02460B463046394620F0E8F8B4
:104A400020F04CFD64E7DDE904235046594620F090
:104A500025FD00283FF443AEDDE9042350465946C6
:104A600020F0D4F842464B4606460F4620F00CFD97
:104A700000287FF434AED4F8E40020F015FA424662
:104A800004460D464B463046394620F0A1FB02460F
:104A90000B460020134920F0B9F802460B46204689
:104AA000294620F06BFA0E4B044618680D4620F09C
:104AB0000DFA02460B462046294620F05FFA0022F6
:104AC000002304460D4620F0CBFC08B1002400254D
:104AD00020462946B4E7002600273AE60000494070
:104AE000040000200000F03F014B93ED000A7047E6
:104AF00004000020044A00231360044A1360044A9F
:104B000082F80531704700BFE0040020D404002083
:104B1000300A002008B5FFF7EDFF0B4B002283F8A9
:104B2000E02083F8042183F86E2183F86F2183F855
:104B30007021C3F8742183F8F82083F8072183F8E3
:104B40000C2183F8062108BD300A002038B5002466
:104B5000184D194B85F8064120461C7001F0CAFD1E
:104B600000F01DFD154B164983ED000A154B85F825
:104B7000F8400020C3E90001134B85F80C411C608C
:104B8000124B85F807411C60114B85F86E411C6083
:104B9000104BC5F87441012106201C6085F86F4157
:104BA00085F870411DF0A8FC01210620BDE83840C1
:104BB0001DF0BABC300A0020CC0400200400002004
:104BC0000000F87F08000020E4040020DC0400203E
:104BD000E0040020D404002010B50A4C012384F81E
:104BE000F8301DF075FE002384F86E31C4F874317E
:104BF00084F86F3184F870310323C4F8FC0084F822
:104C0000063110BD300A00202DE9F04F2DED028B4A
:104C100087B01DF05DFEA34C0746A34894F80651EB
:104C200003786A1E013B022ADBB200F2C082022B2B
:104C300001D9C4F8347241F23D330570E35C63B9C5
:104C400041F23E32A35441F23F32A354974A1370CB
:104C500041F24232A352964A136041F23F31635C03
:104C6000002B00F08380924A1368002B7ED091487D
:104C7000FB1A83427AD941F23E330025E5548B4B2F
:104C800065541D7041F2423306200121E552156042
:104C900084F8065184F8F85084F8075184F80C51D0
:104CA0001DF042FC284607B0BDEC028BBDE8F08F3A
:104CB000C4F8B8212278C4F888914EF66023B1FB7D
:104CC000F3F3C4F8E8314FF6FF73A4F81832B2B129
:104CD00094F844309A4212D904EB8303D3ED017A5D
:104CE000F4EE677AF1EE10FA09D6B6EE007A77EEB6
:104CF000877AFDEEE77A17EE903AA4F8183241F27F
:104D00003F32BCF10B0FC4F83812A15C98BF0CF114
:104D1000010C4FF0000398BF84F830C2C4F834325D
:104D200059B1A35441F23E32A354604A137041F288
:104D30004232A3525E4A13607DE741F23D33E35CA9
:104D4000002B3FF478AF41F2423141F24432635AD2
:104D5000A25A9342BFF46FAF01339BB29A4263529F
:104D60009EBF41F23E330122E25464E706F0ACFA02
:104D7000054668B1062001211DF0D6FB002084F80D
:104D8000060184F8F80084F8070184F80C018AE72A
:104D900094F80431013B012BECD994F8CC20464B1C
:104DA000002A45D0D4F8D020BA1AB2F57A7F3FD87D
:104DB00084F8E000186094F81891DFF80481B9F1E4
:104DC000010F5BD12278002A46D094F844309A42F1
:104DD00042D904EB830240F6B831526ABA1A8A42C9
:104DE0003AD804EB830393ED018A18EE100A20F001
:104DF0006DF802460B4620F05BFB064660BBDFED1C
:104E00002F7AC8F80000B4EEE78AF1EE10FA3EDB24
:104E10000620494684F804911DF086FB84F806615B
:104E200084F8F86084F8076184F80C6130463AE74A
:104E30001A6802B91F601B684EF65F22FB1A934284
:104E400088BF94F805314FF0010582BF2B4384F8E9
:104E5000E05084F80531AEE7D8F800300BB9C8F857
:104E60000070D8F80030FF1A4EF65F239F420ED92B
:104E7000022384F8043184F805317BE70023C8F865
:104E8000003094F8053123F0020384F8053194F8DA
:104E90000431BBB1062001211DF046FB002084F83F
:104EA000060100E7300A0020CC040020701D00201D
:104EB000D00400207FEE3600E004002000003E43D6
:104EC000D404002094F81831002B40F0CD801DF060
:104ED000FFFC94ED358A824618EE100A1FF0F6FFAB
:104EE0000646D4F8D8000F461FF0F0FF94F80631BC
:104EF000CDE902010BB9FFF76FFE94F80631032BE1
:104F000017D194F8F83053B1D4F8FC30D4F800112C
:104F1000AAEB03024FF47A734B439A4209D300235E
:104F200084F8F830012384F8063184F80731C4F896
:104F300008A194F80631012B3CD194F807211AB945
:104F400084F80731C4F808A132463B46304639465A
:104F500020F0AEFAB0BBD4F8EC001FF0A5FF0022A1
:104F6000AE4B20F00BF80022AD4B8046894620F076
:104F700077FA18B1DFF8A8924FF00008D4F8DC00F7
:104F80001FF092FF42464B461FF040FE02460B4682
:104F90003046394620F078FAA0B1022384F8063171
:104FA000012384F80C310023C4F810A184F86E3179
:104FB00084F8703194F80631022B4BD0032B51D07A
:104FC000012B4DD132463B463046394620F070FA2F
:104FD000002845D1D4F8DCB058461FF065FF002208
:104FE000904BCDE904011FF011FE80468946024630
:104FF0000B463046394620F03DFA98BBDDE90423E4
:1050000030463946D4F8E44020F03EFA70B94946BB
:10501000404620F063FAFDEEC87A0146009464230E
:105020005A4617EE900A1CF0C9F80446CDF800A0C5
:10503000DDE902232046FFF783FA002D3FF433AE6B
:10504000794A92F80631013B012B3FF62CAED2F89B
:10505000E80028E6524630463946FFF735FBE4E7DC
:105060000024E3E76424E1E71DF032FC94ED358A87
:10507000804618EE100A1FF029FF8246D4F8D800A7
:105080008B461FF023FF94F8443022789A42CDE9F2
:10509000020142D904EB830358681FF017FF06464C
:1050A0000F4694F806312BBB32463B463046394614
:1050B00020F0FEF9002840F08681B4F914011FF0B9
:1050C000F3FE02460B463046394620F0C9F9002867
:1050D00000F07981FFF780FD41F23D33E35C4BB195
:1050E000524B1B78E3B141F23F330122E254504B63
:1050F000C3F8008094F80631032B00F09D80013B3B
:10510000012B00F2BA8032463B463046394620F049
:10511000CFF9002800F09780CBE00026454FC0E78C
:1051200041F23E33E35C002BE4D00DF0ABF90028F4
:10513000E0D041F248333C22E35A13FB020041F233
:105140004A33E35C002B0CBF00234FF46163C018AB
:1051500041F2463348BF00F5A830E15C41F24733E5
:1051600048BF00F5C070E25C9142BCD04FF0180C13
:105170004FF4616390FBF3F090FBFCF30CFB130026
:1051800004D28842B6DB9042B4DAACE78842FADB5C
:10519000A9E741F23F33E35C3BB9424650465946EA
:1051A000FFF792FA0BE100240AE1642408E1022BE4
:1051B0003FF641ADD4F8341200293FF43CADD4F8A9
:1051C0003822A7EB01094FF47A73B9FBF3F912B156
:1051D0008A1AB2FBF3F294F830C2BCF10B0FE0462E
:1051E00028BF4FF00B0804EB880304EB480E03F5CF
:1051F000C4730EF5067EB8F1000F3FF459AD53F8B5
:10520000046D5E601E6B5E631E6E5E663EF8026D30
:10521000AEF8026008F1FF38EDE700BF0000E03FA4
:105220000000F03F00006940300A0020701D00209F
:10523000D00400200000F87F32463B463046394615
:1052400020F036F9E8B9B4F916011FF02DFE024638
:105250000B463046394620F017F970B15B4A0023FF
:1052600084F8063184F8F83084F8073184F80C317A
:1052700084F86E3184F87031136094F80631032B92
:1052800017D194F8F83053B1D4F8FC30D4F80011A9
:10529000A8EB03024FF47A734B439A4209D30023DD
:1052A00084F8F830012384F8063184F80731C4F813
:1052B000088194F80631012B3AD194F807211AB9E4
:1052C00084F80731C4F8088152465B465046594677
:1052D00020F0EEF8B8BBD4F8EC001FF0E5FD00229A
:1052E0003B4B1FF04BFE00223A4B06460F4620F088
:1052F000B7F808B1374F0026D4F8DC001FF0D4FD12
:1053000032463B461FF082FC02460B465046594649
:1053100020F0BAF8B8B1022384F80631012384F8EA
:105320000C310023C4F8108184F86E3184F8703198
:1053300094F80631022B3FF42CAF032B3FF435AF2A
:10534000012B7FF430AF41F23F33E65C002E7FF457
:105350002CAF52465B465046594620F0A9F800282B
:105360007FF421AFD4F8DC9048461FF09DFD002269
:10537000194BCDE904011FF049FC06460F460246D1
:105380000B465046594620F075F800287FF40DAFC3
:10539000DDE9042350465946D4F8E44020F074F87F
:1053A00070B93946304620F099F8FDEEC87A0146CA
:1053B000009464234A4617EE900A1BF0FFFE044651
:1053C000CDF8008034E694F8063198E6C804002051
:1053D0000000E03F0000F03F0000694010B50446C7
:1053E00011F0F2FA2168BDE8104011F015BB07B5C5
:1053F00002AB43F8040D1846FFF7F0FF03B05DF869
:1054000004FB38B50546FFF7F2FF0446681CFFF7BA
:10541000EEFF44EA002000B238BD70B500254FF61B
:10542000FF744AF201062846FFF7E1FF4440A4B2A8
:105430000823E2074FEA640003F1FF3348BF7040DE
:1054400013F0FF0384B2F4D10135582DEBD120467F
:1054500070BD73B502AD002345F8043D04460E4609
:1054600011F0B2FA2A46216811F041FB01280CD153
:1054700011F0AAFA2268314611F0E2FA11F0A4FA0A
:1054800011F0FDFA204602B070BD11F09DFA2268BD
:10549000314611F0D5FAF5E707B502AB43F8040D34
:1054A0001846FFF7D6FF03B05DF804FB38B50D468C
:1054B0000446FFF793FF854204D020462946FFF7B4
:1054C000C8FF0446204638BD07B502AB43F8040DBB
:1054D0001846FFF7EBFF03B05DF804FB10B5FFF7CC
:1054E0009CFFBA2104465820FFF7EEFF0321592004
:1054F000FFF7EAFFE1B25A20FFF7E6FFC4F3072106
:105500005B20BDE81040FFF7DFBF38B505460C460D
:10551000C9B2FFF7C1FFC4F30721681CFFF7BCFF46
:10552000BDE83840FFF7DABF38B50C4A0C4D41F200
:105530004B334FF4E670D15CFFF7C6FF40F2CD1459
:1055400015F8011F2046FFF7BFFF95F900301BB18A
:105550000134B4F5F77FF3D138BD00BF300A002025
:105560007B1D002001B20020FFF7CFBF01B2022057
:10557000FFF7CBBF01B20420FFF7C7BF01B206207F
:10558000FFF7C3BF01B20820FFF7BFBF08B5C1B224
:105590000A20FFF781FFBDE80840FFF79FBF13B562
:1055A0004FF07E530093342401A80194FFF716FFB7
:1055B0000DEB04030134382C03F8340CF4D19DEDC9
:1055C000000AB4EE400AF1EE10FA13D6F6EE007AB5
:1055D000B4EEE70AF1EE10FA0CD4F0EE007AB4EE75
:1055E000670AF1EE10FAF7EE007AC8BFB0EE670A6C
:1055F00002B010BDB7EE000AFAE701B20C20FFF7C7
:1056000084BF01B20E20FFF780BF01B21020FFF768
:105610007CBFFFFF38B5074D3C2463192046197A3B
:105620000134FFF739FF442CF7D1BDE83840FFF7CC
:1056300055BF00BF300A00202DE9F047164CDFF8B7
:105640005CA04FF4C87601274FF00008A4F5A279BA
:105650000025A819FFF7CBFE63190135102D83F83B
:105660004C00F6D194F84C3084F85B800133DBB207
:10567000012B06D83B465246294609EB060021F08D
:10568000B3F81036B6F5047F07F1010704F11004F2
:10569000DED1BDE8F08700BF300A00203092020062
:1056A0000728F8B50FD800F11906074F3601050194
:1056B00000242B193B44301993F84C100134FFF7A8
:1056C00003FF102CF5D1F8BD300A002008B50146C3
:1056D0001220FFF7E1FEBDE80840FFF7FFBE08B566
:1056E00001461320FFF7D8FEBDE80840FFF7F6BEDD
:1056F00008B501461420FFF7CFFEBDE80840FFF7CC
:10570000EDBE011C18BF01215C20FFF7DDBEFFFFCD
:1057100010B50B4C1620B4F92A11FFF7F6FEB4F9B8
:105720002C111820FFF7F1FEB4F92E111A20FFF703
:10573000ECFEB4F930111C20BDE81040FFF7E5BEC7
:10574000300A002010B50B4C1E20B4F93211FFF7BF
:10575000DCFEB4F934112020FFF7D7FEB4F936117E
:105760002220FFF7D2FEB4F938112420BDE8104002
:10577000FFF7CBBE300A002010B50B4C2620B4F941
:105780003A11FFF7C2FEB4F93C112820FFF7BDFE25
:10579000B4F93E112A20FFF7B8FEB4F940112C20CD
:1057A000BDE81040FFF7B1BE300A002010B5154C1F
:1057B0004420B4F94211FFF7A8FEB4F94411462081
:1057C000FFF7A3FEB4F946114820FFF79EFEB4F997
:1057D00048114A20FFF799FEB4F94A114C20FFF70F
:1057E00094FEB4F94C114E20FFF78FFEB4F94E1120
:1057F0005020FFF78AFEB4F950115220BDE8104046
:10580000FFF783BE300A002010B50C4C542094F8EA
:105810005211FFF741FE94F853115520FFF73CFE5B
:1058200094F854115620FFF737FE94F8551157207D
:10583000FFF732FEBDE81040FFF750BE300A0020EF
:1058400010B541F23D33124C5D20E15CFFF73CFEA8
:1058500041F244335E20E15CFFF736FE41F246330D
:105860005F20E15CFFF730FE41F247336020E15CEE
:10587000FFF72AFE41F248336120E15EFFF745FE63
:1058800041F24A336320E15CBDE81040FFF71CBEE3
:10589000300A002001B22E20FFF737BE01B23020BF
:1058A000FFF733BE08B501463220FFF7F5FDBDE82E
:1058B0000840FFF713BEFFFF70B5074E642440F2A7
:1058C000A515A319204613F8641C0134FFF7E4FD65
:1058D000AC42F6D170BD00BFEA0700202DE9F74FBA
:1058E0000DF10808002348F8083D0F46914614467C
:1058F000042611F069F84246394611F0F8F80128FB
:105900001AD1009DB54228BF354604EB050AA7EB26
:10591000040B544504EB0B0306D014F8011B019350
:1059200001A8FFF7C3FDF4E7761B2F4411F04CF8F4
:1059300011F0A5F8002EDCD1484603B0BDE8F08F89
:105940002DE9F3410020FFF75CFDBF4CC4F8DC00FB
:105950000220FFF756FDC4F800010420FFF751FDB7
:10596000C4F8EC000620FFF74CFDC4F8E400082062
:10597000FFF747FDC4F8E8000A20FFF738FD84F878
:10598000F0000C20FFF73DFDC4F878010E20FFF772
:1059900038FDA4F87C011020FFF733FDA4F87E0148
:1059A0001620FFF72EFDA4F82A011820FFF729FD85
:1059B000A4F82C011A20FFF724FDA4F82E011C20C6
:1059C000FFF71FFDA4F830011E20FFF71AFDA4F811
:1059D00032012020FFF715FDA4F834012220FFF743
:1059E00010FDA4F836012420FFF70BFDA4F83801C0
:1059F0002620FFF706FDA4F83A012820FFF701FD55
:105A0000A4F83C012A20FFF7FCFCA4F83E012C205E
:105A1000FFF7F7FCA4F840011220FFF7E8FC84F838
:105A200057011320FFF7E3FC003018BF012084F872
:105A300056011420FFF7DBFC4FF461635843C4F8B0
:105A400058014420FFF7DDFCA4F842014620FFF78F
:105A5000D8FCA4F844014820FFF7D3FCA4F8460181
:105A60004A20FFF7CEFCA4F848014C20FFF7C9FC00
:105A7000A4F84A014E20FFF7C4FCA4F84C015020C2
:105A8000FFF7BFFCA4F84E015220FFF7BAFCA4F8C0
:105A900050015420FFF7ABFC84F852015520FFF76A
:105AA000A6FC84F853015620FFF7A1FC84F85401AA
:105AB0005720FFF79CFC84F855012E20FFF7A1FC2E
:105AC000A4F814013020FFF79CFCA4F81601322042
:105AD000FFF78DFC84F818015D20FFF788FC451E58
:105AE000684241F23D336841E0545E20FFF77FFC9D
:105AF00041F24433E0525F20FFF779FC41F2463334
:105B0000E0546020FFF773FC41F24733E05461201A
:105B1000FFF777FC05466320FFF769FC012800F2D8
:105B2000AF8105F534739BB2B3F5C36F00F2A88162
:105B300041F24833E55241F24A3300F00100E054AB
:105B40003C2500262846FFF752FC6319072805F17B
:105B5000010594BF18721E72442DF3D13B4FFFF71D
:105B60006BFD642540F2A5183E462846FFF73FFC32
:105B7000EB190135454503F8640CF6D10023F21802
:105B800092F8212142B1203A5E2A02D80133202B1B
:105B9000F5D1002386F82131D4F80031D4F858210A
:105BA000B3F5167F84BF1E23C4F80031D4F8DC306F
:105BB000C83BB3F52F7F84BF4FF4C873C4F8DC3003
:105BC000D4F8EC30013B632B84BF0A23C4F8EC30DB
:105BD000D4F8E430642B84BF0A23C4F8E430D4F84A
:105BE000E830642B84BF5A23C4F8E830D4F8783105
:105BF000013B772B84BF0A23C4F87831B4F87C3199
:105C0000323BB3F5E17F84BF7823A4F87C31B4F84C
:105C10007E31323BB3F5E17F84BFB423A4F87E31FB
:105C200094F85731022B84BF002384F85731084B76
:105C30009A4284BF0023C4F8583141F24433E25AF7
:105C400042B1FF2A08D105E0300A0020EA0700200F
:105C5000307005001E22E25241F246335820E25CC9
:105C6000172A84BF1722E25441F24733E25C172A15
:105C700084BF0622E25441F24832A35A03F534733A
:105C80009BB2B3F5C36F84BF4FF69863A35294F8E9
:105C90005231B4F94A21642B84BF282384F852314D
:105CA00094F85331642B84BF322384F8533194F831
:105CB0005431642B84BF3C2384F8543194F855311B
:105CC000642B84BF462384F85531B4F942319A429B
:105CD000A2BF9623A4F84A31AA23B4F94C21A8BF45
:105CE000A4F84231B4F944319A42A2BF9B23A4F8EC
:105CF0004C31AF23B4F94E21A8BFA4F84431B4F914
:105D000046319A42A1BFA023A4F84E31B423A4F88F
:105D10004631B4F95021B4F948319A42A1BFA523C4
:105D2000A4F85031B923A4F84831FFF760FBBA2832
:105D300040F0C6805920FFF75AFBC11E4E424E412B
:105D40005A20FFF754FB05465B20FFF750FB074640
:105D50005820FFF74CFBBA28814C00F0B380002E8E
:105D600040F08B8006F020FFB4F9DC103046FFF7DE
:105D7000CCFBB4F900110220FFF7C7FBB4F9EC101B
:105D80000420FFF7C2FBB4F9E4100620FFF7BDFBC7
:105D9000B4F9E8100820FFF7B8FB94F8F0100A20D7
:105DA000FFF792FBB4F978110C20FFF7AEFBB4F9C2
:105DB0007C110E20FFF7A9FBB4F97E111020FFF72C
:105DC000A4FB94F857111220FFF77EFB94F85611AC
:105DD0001320FFF779FB4FF461631420D4F85811B6
:105DE000B1FBF3F1C9B2FFF76FFBFFF791FCFFF7CF
:105DF000A9FCFFF7C1FCB4F914112E20FFF785FBB5
:105E0000B4F916113020FFF780FB94F818113220F6
:105E1000FFF75AFB02AA4FF07E5342F8043D3421AB
:105E20005048FFF75BFDFFF7F5FBFFF7BFFCFFF7FF
:105E3000EBFC41F23D335D20E15CFFF745FB41F2B5
:105E400044335E20E15CFFF73FFB41F246335F20C5
:105E5000E15CFFF739FB41F247336020E15CFFF77B
:105E600033FB41F248336120E15EFFF74EFB41F224
:105E70004A336320E15CFFF727FBFFF72FFB2FE09E
:105E80006120FFF7B4FA05466220FFF7B0FA012857
:105E90000CD86BB213F10C0F08DB0E2B06DCC3EB36
:105EA000031341F248329B00A35244E641F24833C7
:105EB0004FF69862E25241F24A330022E2543FE642
:105EC00000263DE75920FFF792FA03287FF447AFF9
:105ED000FFF7A3FA45EA0725ADB285427FF43FAF4D
:105EE0005C20FFF784FA431E5842584184F8280189
:105EF0004FF4E670FFF77BFA421E504241F24B33FB
:105F00005041E05440F2CD1541F27F162846FFF78C
:105F10006EFAAB1942B2E254DAB120F02003413BF1
:105F2000DBB2192B07D93038C0B2092803D92D2A82
:105F300001D05F2A03D10135B5F5F77FE6D141F2F3
:105F40004C320023A35441F24B32A35402B0BDE8BB
:105F5000F08141F24C33E356002BF0D0F6E700BF5E
:105F6000300A0020EC040020F6EE007AB4EEE70AD6
:105F7000F1EE10FA07B514D4F0EE007AB4EE670A29
:105F8000F1EE10FAC8BFB0EE670A02AA22ED010ACC
:105F900034210548FFF7A2FCFFF7A0FA03B05DF833
:105FA00004FBB0EE670AF0E7EC0400202B4B93F8FB
:105FB0005621AAB1032813D8DFE800F002233241AA
:105FC000B3F93A21C3F8DC20B3F84221A3F8162133
:105FD000B3F84A21A3F8142193F85221C3F8E8201A
:105FE000D3F8DC20A3F86421D3F8E82083F86621F5
:105FF000B3F81621A3F86821B3F81421A3F86A2195
:106000007047B3F93C21C3F8DC20B3F84421A3F86E
:106010001621B3F84C21A3F8142193F85321DDE79E
:10602000B3F93E21C3F8DC20B3F84621A3F81621CA
:10603000B3F84E21A3F8142193F85421CEE7B3F915
:106040004021C3F8DC20B3F84821A3F81621B3F8A7
:106050005021A3F8142193F85521BFE7300A0020FE
:10606000144BB3F9302107EE902AF8EEE77AF4EEFC
:10607000C07AF1EE10FA18DAB3F92E2107EE902A61
:10608000F8EEE77AF4EEC07AF1EE10FA0FDAB3F92F
:106090002C3107EE903AF8EEE77AB4EEE70AF1EE2B
:1060A00010FA94BF0120002070470320704702209F
:1060B000704700BF300A00203F4B93F8192193F836
:1060C0005C0152B193ED470AB4EE400AF1EE10FACA
:1060D00003D6FF2805D1FFF7C3BFFF2808BF002064
:1060E00070470328F7D8DFE800F002133251B3F904
:1060F0002C21B3F93431D21A07EE902AF8EEE77A60
:10610000B4EEE70AF1EE10FA94BF012000207047C8
:10611000B3F92C21B3F932110A4407EE902AF8EEB4
:10612000E77AB4EEE70AF1EE10FA40DCB3F92E217B
:10613000B3F93631D21A07EE902AF8EEE77AB4EEC8
:10614000E70AF1EE10FA94BF022001207047B3F97C
:106150002E21B3F934110A4407EE902AF8EEE77ABB
:10616000B4EEE70AF1EE10FA23DCB3F93021B3F90B
:106170003831D21A07EE902AF8EEE77AB4EEE70A41
:10618000F1EE10FA94BF032002207047B3F93021DA
:10619000B3F936311A4407EE902AF8EEE77AB4EEF6
:1061A000E70AF1EE10FACCBF02200320704700206E
:1061B00070470120704700BF300A002010B5FFF77C
:1061C0007BFFFFF7F3FE044C84F85C011CF080FBBE
:1061D000C4F8600110BD00BF300A002038B5044685
:1061E000FFF76AFF0C4B93F85C2182420ED0D3F884
:1061F00058513DB1D3F860114FF47A72611A6A4375
:10620000914203D383F85C01C3F8604193F85C01C9
:10621000BDE83840FFF7CABE300A0020F8B5044692
:106220001CF056FB134B144D93F80631022B1DD175
:106230002B68A342B5BF4FF4FA71642101220322F7
:106240000E4E3768C01BB0FBF1F328686BB15A43A0
:10625000241A9442A8BF14465242A242ACBF8018EE
:10626000001901FB037328603360F8BD6421032229
:10627000E6E700BF300A0020F0040020F40400200C
:1062800010B5084B00241C70074B93F80621074BF0
:106290001A70074B1C601CF01BFB064B1860064B6A
:1062A0001C6010BD04050020300A0020F804002006
:1062B000F0040020F404002000050020F8B5554D3E
:1062C000554C95F806312278544E934207460DD02E
:1062D000013A022A00F29080227895F80631022ACB
:1062E00012D1012B10D14E4A137023703368DBB1E9
:1062F0001CF0EEFA3368C01A00284FF000040EDAE2
:10630000484B1C602046F8BD032B01D0002BECD17C
:10631000434A00211170002BE7D13360E5E7346078
:106320001CF0D6FA404B186095F8E0303C4E13B99B
:1063300095F8CC309BB995F80631032B0DD0013B75
:10634000012B0CD8D5F8E84001233370354B1C6085
:106350001CF0BEFA344B1860D4E76424F4E795F8D7
:10636000043113B100243470F0E795F86F31002B3D
:10637000F8D195F80631042BF4D0032B03D1012377
:1063800033706424E2E7002BECD095F8F020012A6A
:1063900001D0012B0FD101233370D5F8E400D5F8DB
:1063A000E830B842B8BF38469842A8BF1846BDE8A2
:1063B000F840FFF733BF1CF08BFA1C4B31781A689A
:1063C000821A71B1D5F8E410B94206DD47F22F51B7
:1063D0008A4202D90022327018603478002CDCD155
:1063E000B4E7D5F8E4100931B942F6DA4EF65F2188
:1063F0008A42F2D90122EEE7013B022B3FF66CAF55
:106400001CF066FA074B00F59C5008300022306003
:106410001A6061E7300A0020F8040020000500201F
:1064200004050020F0040020F4040020FC040020F7
:10643000FFF744BF10B51CF051FA25490B6842F232
:106440000F72C31A9342234A82BF0860002313705D
:1064500013780133DBB2202B13701CD91E4B0022A2
:106460001A701E4B012119701D4B18601D4B1A68C4
:10647000002A0FDB53B2002B0CDB5B0902F01F027A
:1064800001FA02F22033184941F82320BFF34F8F5D
:10649000BFF36F8F10BD154A13687BB1C31AA3F504
:1064A000FA51B1F52F7F0C4910D8114C23600B78AD
:1064B000072B03D80B780133DBB20B700D4B106048
:1064C0000D4A1860136801331360E3E70023F4E713
:1064D00044050020500500206905002061050020CA
:1064E0006C0500201000002000E100E064050020A1
:1064F000140000204C0500205C050020F8B5384B46
:106500001B78002B50D0374E374C3768374D1CF076
:10651000E5F927B1C01B46F2A81398420CD9002315
:1065200023702B70324B1978003118BF01210520E0
:10653000BDE8F8401BF0F8BF2E4B1A682E4B1968C7
:106540008A4210D00027394605201A602F701BF0B0
:10655000EBFF274B1B78DBB2632B26D901210520EB
:106560001BF0E2FF27701CF0B9F92378064673B1DF
:10657000224B1B68C31A002B09DB012105201BF0ED
:10658000D3FF1F4B1E6001232B70002323702B7839
:1065900053B11B4B1B68F61A632E05D90021052049
:1065A0001BF0C2FF00232B70F8BDBBB1154A126867
:1065B0003168B2F5967F8CBFA2F596724FF47A726D
:1065C000A2F57A72C3F1640353436422B3FBF2F37E
:1065D00001F57A721344094A136001232370C2E75C
:1065E000600500204C0500204005002048050020E3
:1065F000580500205C05002070050020740500206F
:1066000054050020140000207FB5012105201BF057
:1066100073FF002105201AF0F7FC04A8002400F8FD
:10662000014D214618F044FE031E0ADA274819F0EE
:1066300049F8274927481BF059F80025284604B097
:1066400070BD254900919DF80F200194DFED230ACC
:106650009FED230A1D48DBB2214618F0CFFE00282B
:10666000E4D022460C21194819F06CF80028DDD03E
:10667000164818F06CFF05460028D7D0194E0123A4
:106680000221204633701BF037FF72B6204619F006
:1066900088FF042214491AF00DF820461AF00EF86B
:1066A000124B186062B61B68002BC7DA204619F03F
:1066B00078FF19F077FF054819F004F80C490548F0
:1066C000347025461BF012F8B8E700BF080500201B
:1066D0003992020010300020FD64000000004842A2
:1066E00000409C4651050020356400001000002049
:1066F0006A9202002DE9F04F6C4EDFF8F491337886
:10670000DFF8F08164280446A8BF642485B00746FA
:1067100024EAE474002B4AD0654D2B782BB9012371
:10672000644965482B701AF0E1FF1CF0D7F8634B01
:106730001B68C01A624B984239D972B6614B4FF050
:10674000000AC9F800A0C3F800A05F4B88F800A0B9
:1067500083F800A01CF0C2F85C4B18605C4B86F814
:1067600000A019685B4B48B200F1C002504553F8D5
:1067700022C06AF3104C43F822C04FEA50134FEA8C
:10678000830303F1604300F01F0C4FF0010203F597
:10679000614302FA0CFCC3F880C105DB01F01F0164
:1067A0008A40C3F880211A6062B600232B7072B64B
:1067B00049494A4B03915FFA84FA81F800A0D9F85D
:1067C00000201B68019398F8003002925FFA83FB67
:1067D00062B6DFF824911CF081F8039999F8005013
:1067E0008846C5B1317801F0FF05002933D1002F6B
:1067F00011DDBBF1070F0ED9019BA3F5FA5BBBF5C9
:106800002F7F08D8029A32B146F2A815801AA84202
:106810008CBF00250125324F97F800B03E46BBF1F2
:10682000000F1AD0002D3AD12E4818F0B7FE72B6DC
:106830002D4B1D7062B6012105203D701BF05CFEE2
:10684000C4EB04246423052094FBF3F105B0BDE8F8
:10685000F04F1AF0D9BB0025DDE7002DF0D021481C
:1068600018F09CFE012105201BF046FE594605202C
:106870001BF05AFE72B61C4D01232B7062B61948EC
:10688000337018F0A2FE38B92870307089F8000013
:10689000164909481AF02AFF3378002BD0D072B677
:1068A00088F800A062B605B0BDE8F08F6105002051
:1068B000410500209E920200103000206C0500204F
:1068C0003F420F00640500205005002044050020D1
:1068D0001000002000600040580500201400002037
:1068E000680500200805002060050020D9920200FC
:1068F0004C0500206905002051050020014818F0D2
:1069000015BC00BF08050020014818F0FFBE00BFFD
:106910000805002038B5022113201BF0EDFD1BF007
:10692000DDFF054613201BF00BFE044630B91BF0BB
:10693000D5FF401BC728F5D9204603E005201BF0F2
:106940007FFF012038BD08B513201BF0F9FD012899
:1069500006D112201BF0F4FD431E5842584108BDD9
:106960000020FCE7034B01221A70034B00221A702F
:10697000704700BF8405002085050020014B187872
:10698000704700BF85050020014B1868704700BFA5
:106990007805002010B5084C20460CF08DFE2046EE
:1069A00006490CF09DFB2046002246F2A811BDE8E6
:1069B00010400CF08CBF00BF34210020A0860100E5
:1069C00038B51BF085FF394A1368C31AB3F57A7FCF
:1069D000044605D31060FFF7B6FF08B9FFF7C2FF02
:1069E000334D2B78002B60D0324A1368E31AB3F58D
:1069F0007A7F5AD3304814600CF00AFB022112202F
:106A00001BF07AFDFFF786FF0A24B0B900202B4C5B
:106A10002070FFF7BFFF2A4A2A4913682A4801332A
:106A20001360237883F001022A70284A002B08BFE4
:106A30001146BDE838401AF059BE12201BF080FD07
:106A4000014680B9013C14F0FF040CD013201BF068
:106A50006BFD012113201BF04FFD05201BF0F0FE04
:106A6000FFF758FFD1E7002113201BF05DFD012146
:106A700013201BF041FD002112201BF055FD0121C8
:106A800012201BF039FD05201BF0DAFEFFF742FF54
:106A90000221044612201BF02FFD05201BF0D0FE22
:106AA000002CB3D0FFF74FFFB1E738BD7C050020C5
:106AB0008405002080050020342100208505002069
:106AC000780500200B930200103000201E93020076
:106AD00010B5FFF75FFFFFF736FF0B4C0B4B207035
:106AE00080F0010018701BF0F3FE094BA0F57A70DE
:106AF00018601BF0EDFE074B186023781BB9BDE84A
:106B00001040FFF75DBF10BD850500208405002003
:106B1000800500207C05002038B5094C0546202161
:106B200020680CF08AFE2068036829461B68984795
:106B3000206803685B6B9847B0FA80F0400938BD65
:106B4000A40500200D4B10B518600D4B00241C70DF
:106B50000C4B1C701BF0BCFE0B4B18601BF0B8FEFE
:106B60000A4B053818600A4B1C700A4B01221A7038
:106B7000FFF70AFF084B186010BD00BFA4050020F6
:106B8000A0050020980500209C0500208805002015
:106B90008C05002018000020900500202DE9F04110
:106BA0005A4C1BF095FE236805461BB9002420466D
:106BB000BDE8F081FFF7E2FE0028F7D0544EFFF762
:106BC000E3FE336898420CD0FFF7DEFE514A306096
:106BD00000231370504A1370504B1D60504B01221C
:106BE0001A70504E337833B14F4B1B6841F28732E5
:106BF000EB1A9342DAD94D4A1368EB1A042BD5D914
:106C000023681560ABB933781BB9494949481AF074
:106C10006DFD454A15603F4A002414703E4A1470C9
:106C20003E4A15603E4A012333701370FFF79AFE07
:106C3000BDE700274FF0010808FA07F0C043C0B2D3
:106C4000FFF76AFF0028DED04FF496701BF0F8FDC6
:106C5000206803680122DB6B202198470128D2D1EC
:106C6000206803681B6998470028CCD02068036817
:106C70005B6998470023C0B21A1D40FA02F2D2079E
:106C800024D42D4A02EB8707FF20FC56FFF744FF70
:106C90000028B8D033782BB1284926481AF026FDB1
:106CA000002333701C4B93F90020A2421EBF1C70BE
:106CB0001A4B1D601A4B1A789AB1002C7FF476AFEC
:106CC000164A1068281A0F2818D86FE70133042BCA
:106CD000D2D10137042FAFD1FF20FFF71DFF0024D1
:106CE000D6E76CB10D4B1868281A0F287FF65EAFF7
:106CF000084B93F90020A2423FF458AF1C7056E7AE
:106D0000044B93F90020002ADAD14FE7A4050020B4
:106D100090050020A0050020980500209C0500207B
:106D2000180000208C050020940500208805002014
:106D30004693020010300020A19302006F930200DE
:106D4000002070470069013018BF0120704708B566
:106D500003685B6B984780F00100C0B208BD13B5B3
:106D600002AB026803F8011D546819460122A047CE
:106D700002B010BD07B5036801225B6A0DF107017F
:106D8000984701280CBF9DF807004FF0FF3003B073
:106D90005DF804FB084611461FF0CABC08461EF009
:106DA00005BF08461EF0FABE7FB5036804461646C6
:106DB00001A81D6A1AF052FB324601992046A847E5
:106DC000044601A81AF044FD204604B070BD4FF6F9
:106DD000FF7399421FBF0368CA0903EBC20301F0A6
:106DE0007F011ABF586800EBC100002070477FB5D3
:106DF00005460E46144610460AB11FF0CFFDCDE9F8
:106E0000014000228DF80C2004AA2B4612E907004D
:106E100043F8046B83E80700284604B070BD10B542
:106E20000446B4F5803F08460BD20921611808D208
:106E300003681B68984700B910BD0123C480838094
:106E4000FAE70020F8E70A680B4652680146184640
:106E5000104770B5044616460D46084609B11FF0A6
:106E60009DFDC4E900502672204670BDB2F5803FFA
:106E7000F8B506460F461546046807D2236809325E
:106E80009B682046984708B1C580F8BD2368204616
:106E90005B6839469847012333710020F5E738B520
:106EA000C588044601F12C002946FFF790FFA58014
:106EB000206008B1C388E38038BD38B50023836003
:106EC0004368044643B905681F202968FFF7A7FFF8
:106ED00008B901232B71606038BD38B50D46416893
:106EE000044649B18268CB889A4205D152000132EA
:106EF0000068FFF7BBFF6060636823B1A2681344BA
:106F0000511CA1601D7238BD2DE9F0470379DA07E5
:106F100005460C4610D500688B68002263B1984284
:106F200032D183882168013B9BB2838023B90368F7
:106F300042B31360FFF787FF2B79DB0608D52E8855
:106F400004F12C003146FFF742FFA38E0380A68692
:106F50002B7913F0600F1CD02E884FF6FF7A04F1C6
:106F60002C09564513D031464846FFF730FF2146DD
:106F70000746B0F80680FFF7C7FFA38E3B80A686C2
:106F80004646EEE7A360D5E71A461B68C6E72E80A3
:106F90006E8000232B71BDE8F087FFFF38B51D4BD5
:106FA0001A681D4B6AB392F9002052B31B4C226839
:106FB0003AB392F9002022B3194D2A680AB392F924
:106FC0000020F2B10122174917481A700FF078FE1D
:106FD0002A68216814480FF076FE43F6982112487B
:106FE0000FF07EFE4FF47A710F480FF07BFE0F4BCF
:106FF0000F490D484FF47A725A61BDE838400FF0DE
:107000004DBE00221A700B490B48BDE838401AF0FB
:107010006DBB00BF2C210020C905002030210020BD
:1070200028210020D8940200D4050020A0060020CA
:1070300045930000E89402001030002000F10C019C
:10704000074AC1624FF480210260016300224FF6BB
:10705000FF7102718260818680F83C20C187704791
:107060001C00002000F10C01074AC1624FF480218E
:107070000260016300224FF6FF7102718260818617
:1070800080F83C20C18770471C0000202DE9F047A4
:10709000002504460E46A946A28C276AABB29A4246
:1070A0000FD907EBC3089A46D8F8041019B1336812
:1070B00030465B68984747F83A900135C8F8049025
:1070C000EAE70023A384BC424FF6FF73238507D071
:1070D000336839465B683046984704232462E3846A
:1070E000BDE8F08738B505680446A06828B1036894
:1070F000A3602946FFF7A7FEF7E704F10C0021681B
:10710000FFF7C4FF204638BD30B5022303710A796A
:1071100003461C1AE5B2AA4204D90D682C5703F89D
:10712000014BF6E70023835430BDC0E9001207226B
:107130008260012202737047C0E900120E22826051
:10714000012202737047C0E900120B228260012203
:1071500002737047C0E900120D228260012202739F
:107160007047C0E900120922826001220273704751
:10717000C0E9001203228260012202737047C0E955
:1071800000120A228260012202737047C0E90012D5
:107190000F228260012202737047C0E900120522AB
:1071A0008260012202737047C0E9001204228260EB
:1071B000012202737047C0E900120C228260012292
:1071C00002737047C0E90012062282600122027336
:1071D0007047C0E9001208228260012202737047E2
:1071E00010B5D1E90041C260042202610122C0E968
:1071F0000141027510BDC0E9001202228260012225
:107200000273704710B5D1E90041C26003220261E8
:107210000122C0E90141027510BD10B5D1E900415C
:10722000C260022202610122C0E90141027510BD63
:107230008B8C30B5013B0D6A9AB205EBC2046168D4
:1072400049B1638835F832509D4204D95D1C11EB79
:10725000C301658005D1002303604FF6FF7383806F
:1072600030BD016003EBC213F9E72DE9F3470E8D42
:107270004FF6FF739E4205460C4617460CD031462A
:1072800004F12000FFF7A3FD038823852860AE806A
:10729000284602B0BDE8F0878B8C53B16E4630466D
:1072A000FFF7C6FF009B23B196E8030085E80300C3
:1072B000EEE7A28CE38C934217D1B3F5007F3FD069
:1072C0005B009EB2236A3968A3424FEAC6022FD1FF
:1072D0000B68384611469847804688B320222146DD
:1072E0001EF0DDFCC4F82080E684B4F82480D4F8D5
:1072F00020A008F101039BB2B3F5007FA3843B6893
:107300000CBF7F268026F1001B68384698470AEBA1
:10731000C809002808BF00260023C9F80400214638
:107320002AF838602846A9F80230FFF781FFAFE756
:10733000D1F8088038461946C04780460028D1D188
:1073400000232B604FF6FF73AB80A1E737B50A68C7
:1073500004460D4668460C31FFF787FF009B4FF649
:10736000FF7233B90121297120462360A28003B046
:1073700030BD0021DA801971BDF80420F4E7F7B5BB
:10738000044668460F46FFF7E1FF009E66B161883C
:10739000BDF804504FF6FF73994208D007F12C0056
:1073A000FFF715FDC5806580304603B0F0BD258030
:1073B000F9E737B50A6804460D4668460C31FFF711
:1073C00054FF009B43B9012223604FF6FF732A71DB
:1073D000A380204603B030BDBDF804202360A28006
:1073E000F7E707B50368082203EBC10168461EF002
:1073F00056FC9DED000B03B05DF804FBFFFFFFFFA3
:107400002DE9F74F91F900302B2B044632D02D2B6C
:1074100031D10131012591F90020A2F13003DBB215
:10742000092B01D92E2A28D1DFF874B28846002012
:1074300000214FF0993A4FF00A0EC4461CF9013B67
:10744000A3F13002D2B2092A1DD88B4508BF82456C
:1074500020D30EFB01F3A0FB0E0119440023D2B28E
:10746000DF43D6438F4208BF864213D38018594169
:10747000E046E2E701310025CDE7002323702046F6
:1074800003B0BDE8F08F2BB9E5B1B1F1004F08BFF3
:1074900001280FD3784F00234FF0FF368F4208BFEB
:1074A000864203F1010910D200230A221EF0FEF8E1
:1074B0004B46F3E702234042237061EB4101C4E9EC
:1074C0000201DCE703232370F9E7A3EB080202EBD8
:1074D0000806434618F901CBACF13007FFB2092F7B
:1074E00036B2F4D9BCF12E0F1DD1C4460FF280196B
:1074F000D9E900894FF00A0E63460CF1010C1F78A0
:10750000303FFFB2092F0ED8894508BF8045F3D31D
:10751000A0FB0E230EFB0133D01906F1FF3643F119
:10752000000136B2E8E793F9002022F02002452A54
:1075300067D193F901202D2A25D19F1C4FF0010C12
:1075400000224FF00A083B4617F901EBAEF1300E6E
:107550005FFA8EF9B9F1090F26D808FB02E29319F8
:10756000B3F59A7FEFDDBCF1000F13D0DFED437A66
:107570009FED437A002D18BFF0EE477A0123237068
:10758000C4ED027A7BE72B2A14BF5F1C9F1C4FF0CF
:10759000000CD5E700222DB13A4B04212170C4E93B
:1075A00002236CE7384BF8E7BCF1000F00D05242E1
:1075B00093F90030002B7FF460AF164406F12603E8
:1075C0004C2B27D8002908BFB0F5000F22D2002E7F
:1075D00007EE900AD4BF2D4B2D4BF8EEE77AD8BFBB
:1075E000764203F1180286B19A420CD0F10748BFE7
:1075F00093ED007A4FEA660648BF67EE877A043358
:10760000F1E70022D4E7DFED237A002DB6D0F1EECA
:10761000677AB3E71DF07CFC002ECABF1E4B1F4BE0
:10762000019380468946DCBF019376420027B6B1BC
:10763000092F10D0F3070BD5394601A8FFF7D1FE6B
:107640004046494653EC102B1DF098FC8046894675
:1076500076100137EBE7DFF84C904FF0000815B1DA
:1076600009F10043994604232370C4E9028906E71F
:107670009899999999990100FFFF0F000000000067
:10768000000000800000F0FF0000F07F1494020072
:107690002C9402000000C07F9094020048940200E5
:1076A000999999190000F87F70B5006878B1C4887D
:1076B0004B689C42F9D10D6800239C4207D9C2183F
:1076C000EE5692F908209642EFD10133F5E770BDEE
:1076D0002DE9FF4182684368032A04460D4603F101
:1076E000080319D818460021D7B2C61AF6B2BE420E
:1076F00006D210F9016B002E08BF41F00101F4E73A
:1077000051B98DF80C10284601A9CDE90132FFF7D7
:10771000FBFC04B0BDE8F08100269E542768D4F835
:1077200008808DF80C6001A907F10800CDE9013847
:10773000FFF7BAFF68B9424661683846FFF796FB23
:1077400023689A6802609860666005232B71286040
:10775000DFE7838801338380F7E72DE9F0418AB0C2
:10776000064601A880E80E00109F0B46002954D061
:107770009DF80C5035B104223271316028460AB0B0
:10778000BDE8F081029C032C17D82A465FFA84FEDC
:10779000A1EB030C5FFA8CFCE64507D911F901CB8C
:1077A000BCF1000F08BF42F00102F1E72AB901461F
:1077B0003046FFF7A9FC0125E0E707C8BE460DF1FA
:1077C0001C0C5EF8088B04AB83E807008CE807000C
:1077D00061467046FFF768FF30B1838801338380CC
:1077E000052333713060E6E741462046FFF717FB7B
:1077F00010B901233B71C1E7079D00F10802002386
:107800009C4203D0E956D1540133F9E704440023E4
:107810002372BB680360B860E2E70D46AEE770B55F
:1078200086B003AC84E80E000A9D064640B12946A6
:10783000FFF76AFB009594E80E003046FFF78DFFD6
:1078400006B070BD30B589B002AB83E806000D46C6
:10785000044608B11FF0A2F8CDE9054000238DF8D9
:107860001C30039B009308AB13E90E002846FFF77A
:10787000D6FF09B030BD70B588B002AB83E8060012
:107880000D46039E044608B11FF088F8CDE9054077
:1078900000238DF81C30009608AB13E90E00284633
:1078A000FFF7BDFF08B070BD4FF0FF330361836980
:1078B00033B10022C3F80024C3F80424C3F8082419
:1078C00070472DE9F0438BB001AC84E80E00129DA7
:1078D0000E4671B907914FF6FF73ADF82030079847
:1078E00020B107A82946FFF7DAFA07980BB0BDE8E0
:1078F000F0830488DDF80880214605F12C00FFF7AD
:1079000066FAADF81840059008B3C388ADF81A3090
:107910000124A1460027059999B35CB30B79042B88
:1079200018D0052B19D0022B1FD1002207A8FFF772
:1079300090FA089A42451DD1079900239A4222D015
:1079400016F903C0C856844514D10133F6E74FF643
:10795000FF73DBE701220968E8E70B68DA888DF836
:1079600024700833CDE90732E3E7CDE907778DF8D6
:107970002490DEE7294605A884F00104FFF78FFA7A
:10798000C9E70791A7E705AA92E8030007AB83E8D8
:107990000300A4E730B5054689B00C46084609B196
:1079A0001EF0FCFFCDE9024000248DF8104002AA31
:1079B00095F83C3007CA202B08BF05F1380405AB09
:1079C00083E807004CB100950ECB2046FFF779FF06
:1079D000003018BF012009B030BD2046F8E7F0B5EF
:1079E000047905460E46018814F0100085B003D0D6
:1079F00002F12C00FFF7EBF90C2C4FD01AD8042C15
:107A000049D003D8022C40D0002035E0062C5BD0B2
:107A10000A2CF9D12A6800233168087800218B42AA
:107A200008BF824258D3994208BF90422CBF012020
:107A3000022021E01A2C44D020D80E2CE4D1286852
:107A40001DF044FA04460D46336818781DF01CFA00
:107A500006460F4602460B46204629461DF000FD0D
:107A6000002839D132463B46204629461DF016FDF6
:107A7000002814BF0220012005B0F0BD1C2C1DD031
:107A80001E2CC1D1D0E90045DEE70022294601A81D
:107A9000FFF7DFF9B8E701222968F8E72A68D3176A
:107AA000316808780021824273EB010414DB9042B4
:107AB00071EB0303ACBF01200220DDE7D0E9002316
:107AC000EEE7D0E90023A7E733682A781B789A42CB
:107AD00002D303D90220CFE70420CDE70120CBE772
:107AE00030B585B001466846FFF78AFC9DF8003046
:107AF000013B032B48D8DFE803F00218242FDDED0B
:107B0000027A9FED257AF4EEC77AF1EE10FA3BDBAC
:107B10009FED227AF4EEC77AF1EE10FA34D8FDEE3A
:107B2000E77A17EE900A05B030BDDDE9020110F1E9
:107B3000004241F10003012B08BF002A28BF0020AA
:107B4000F1E7DDE9020100238B426FF0004208BF3C
:107B5000824238BF0020E6E7DDE902450022104BF3
:107B6000204629461DF090FC0028DCD008A3D3E96C
:107B70000023204629461DF07DFC0028D3D0204656
:107B800029461DF0ABFCCEE70020CCE7AFF3008028
:107B90000000C0FFFFFFDF41000000CFFFFFFF4EEE
:107BA0000000E0C1FFFFFFFF38B5057904460B4632
:107BB000018815F0100003D003F12C00FFF707F93E
:107BC000023D1C2D65D8DFE805F02E6432340F64C9
:107BD0006464116415643764646464646464646434
:107BE0006464176422644C00207838BD206820EA61
:107BF000E070FAE72068F8E7D0E9000100238B4243
:107C00006FF0004208BF824238BF0020EDE7D0E9A4
:107C1000000110F1004241F10003012B08BF002ACE
:107C200028BF0020E1E72046FFF75AFFDDE7206884
:107C3000FAE720680830F7E7D4ED007A9FED187A6C
:107C4000F4EEC77AF1EE10FA23DB9FED167AF4EE2C
:107C5000C77AF1EE10FA1CD8FDEEE77A17EE900A1B
:107C6000C3E7D0E9004500220F4B204629461DF00E
:107C70000BFC0028B9D008A3D3E9002320462946ED
:107C80001DF0F8FB0028B0D0204629461DF026FC48
:107C9000ABE70020A9E700BF0000C0FFFFFFDF4106
:107CA000000000CFFFFFFF4E0000E0C170B5446848
:107CB0000A44D0E90053AB4207D28A4205D011F9F9
:107CC000015B5E1C46601D70F3E782681B1B13445A
:107CD000836070BD38B5054608460C461EF05EFE52
:107CE000214602462846FFF7E1FF38BD2DE9F04165
:107CF00086B00DF11604054616461F46A0463046CE
:107D000039460A2200231DF0D1FC303204F8012D3F
:107D10000023304639460A221DF0C8FC06460F46AD
:107D200056EA0703EBD1A8EB040221462846FFF7E9
:107D3000BDFF06B0BDE8F081D0E9002393423EBF0D
:107D40005A1C42601970836834BF01220022134418
:107D5000836070472DE9F0410D4622211646044606
:107D6000FFF7EAFFDFF850802E44B54215D015F931
:107D7000011B104B13F9027CAFB1023313F9032C32
:107D80008A42F7D15C212046FFF7D6FFF9B20DE019
:107D900041462046FFF79EFFE7E722212046FFF7F6
:107DA000CBFFBDE8F0810029F2D0C9B22046FFF731
:107DB000C3FFDAE799A10200A6A1020070B5002A6C
:107DC0001D4675F100030646144605DA2D21FFF71E
:107DD000B3FF644265EB450522462B463046FFF76C
:107DE00085FF70BD437D13B504466BB901220DF1CB
:107DF0000701006919F00CFD50B19DF8073023EA26
:107E0000E37323750123637594F9140002B010BD68
:107E10004FF0FF33F3E738B5044600252046FFF75F
:107E2000E1FF0A2806DC092808DA48B10123237398
:107E300000200AE00D2801D02028F7D16575EDE774
:107E4000237B002B14BF0220012038BD70B50546EE
:107E50004C1E002614F9010F50B12846FFF7C2FF4F
:107E600028B194F90030834203D16E75F2E7022005
:107E700070BD0320FCE72DE9F04387B006460D46B0
:107E8000FFF7B0FF002427462F28E3B20BDD392887
:107E90000BDC0134402C23D033197775D87630466B
:107EA000FFF7A0FFF0E72B28F3D0A0F12D02D2B20C
:107EB000012AEED920F0200252B2452AE9D03344FB
:107EC00000221A7706F11C0102A8FFF799FA9DF823
:107ED0000830013B032B62D8DFE803F03924043E6D
:107EE0003F23ECE7DDE90489B9F1010F08BFB8F1E0
:107EF000000F07D20A232B71C5F80080002007B0BD
:107F0000BDE8F083B1696846FFF753FA009B0BB9EF
:107F10000420F4E71A222A71BDF804202A80C3E95C
:107F20000089EBE7DDE9048918F1004249F100031B
:107F3000012B08BF002A01D20C23DCE7B169684697
:107F4000FFF737FA009B002BE2D01C22E3E70E2359
:107F50002B71049B2B60D1E7DDE90489494640463B
:107F60001DF004FB07461CF0B1FF02460B464046DD
:107F700049461DF06BFA18B10E232B712F60BDE737
:107F8000B1696846FFF715FA009B002BC0D01E228E
:107F90002A71BDF804202A80C3E90089AEE70320D6
:107FA000ADE770B550F8046B07C88CB003AB16F1A1
:107FB000380583E8070002D100200CB070BD93E8BB
:107FC000070096F83C30202B06AC09AB18BF002503
:107FD00084E8070083E80700002DEDD000960ECB63
:107FE0002846FFF76EFCE8E710B50446FFF7D9FF17
:107FF000216808B1FFF7D8FD10BD70B50646FFF740
:10800000D0FF054688B10479018814F0100003D030
:1080100030682C30FEF7DBFE0C2C29D006D8062C5D
:1080200024D00A2C24D07CB3012070BD1A2C24D07B
:108030000BD80E2CF8D1D5ED007AF5EE407AF1EEA2
:1080400010FA14BF01200020EFE71C2C15D01E2CC5
:10805000EAD100220023D0E900014FF001041DF015
:10806000F5F908B14FF00004E0B2DEE72878DCE76C
:108070002868003018BF0120D7E7D0E90023134358
:1080800014BF01200020D0E72046CEE7FFFFFFFF0E
:108090002DE9F04F5BEC10AB8BB007460D4610EEB0
:1080A000102A5B4610EE100A59461DF0CFF930B980
:1080B000AF493846FFF70EFE0BB0BDE8F08F002247
:1080C0000023504659461DF0C1F968B952465B4637
:1080D000504659461CF09CFD02460B4650465946F8
:1080E0001DF0B4F90028E3D1002200235046594680
:1080F0001DF0B6F930B12D213846FFF71DFE0BF10A
:1081000000439B46012301932C460A2324B1019A84
:108110005A43013C0192F9E791A3D3E90023504669
:1081200059461DF0B1F900286AD0DFF850924FF09F
:1081300008084FF48076414604A8CDF81090FFF768
:1081400050F952465B4651EC100B1DF093F978B193
:10815000884B0493414604A8FFF743F9504659461B
:1081600053EC102B1CF00AFF344482468B4624B299
:1081700018F1FF384FEA6606DDD2CDF80C800022F8
:108180000023504659461DF089F900283DD076A3BA
:10819000D3E90023504659461DF06CF9A8B30023DB
:1081A0000293DDE90223A3EB020919F0800F2CD121
:1081B0000DF128086F4B48F8183D49464046FFF737
:1081C00010F900226C4B51EC100B1CF0D7FE5246FC
:1081D0005B461DF063F978B1684B0493494640460D
:1081E000FFF7FFF85046594653EC102B1CF0C6FE23
:1081F000A41B82468B4624B2029B76100133CFE744
:1082000008234FF480760393B9E7504659461DF092
:108210008DF90A2206460346092B08D9B3FBF2F36F
:10822000013D0199B1FBF2F16DB20191F4E73046E5
:108230001CF02AFE02460B46504659461CF0E6FC4E
:108240008046019889461CF01FFE02460B464046B8
:1082500049461CF093FE804689461DF067F9824628
:108260001CF012FE02460B46404649461CF0CEFC6E
:108270000B4602461CF0CCFC1DF058F9019B0AEBA2
:108280000008434508D8013694B1092E10D90134AD
:1082900024B24FF0000801260A22B8FBF2F302FBD9
:1082A000138141B9002D06DD013D98466DB2F4E71A
:1082B0004FF00008F0E70DF126010A22B6FBF2F3B9
:1082C00002FB1366303601F8016D1E46002BF5D116
:1082D0000DF12606721A3846FFF7E8FCEDB108AA40
:1082E0002B4611464FF00A0C013B5BB2581C09D0DB
:1082F000B8FBFCF00CFB108808F1300802F8018D87
:108300008046F1E7EDB2EB434D1B2E2205F8012C20
:1083100019445A423846FFF7C9FC002C3FF4CCAE52
:1083200065213846FFF708FD002CA5B205DA2D219E
:108330003846FFF701FD6D42ADB231460A22B5FB6A
:10834000F2F302FB1355303501F8015D9DB2002DAB
:10835000F5D1721A3846FFF7A9FCADE6AFF30080FD
:1083600000000000D0126341F168E388B5F8E43EF4
:108370008EA1020048940200000024409094020064
:108380002DE9FF41057906460C46018815F01000DD
:1083900003D002F12C00FEF71AFD0C2D00F099809D
:1083A00016D8042D00F0878006D8022D78D0032D32
:1083B00000F08880504998E0062D00F093807DD32E
:1083C0000A2DF7D1326800232046FFF78FFC1DE00D
:1083D0001C2D00F0848006D80E2D0ED01A2DE9D168
:1083E000D0E90023F0E7202D35D0402D12D01E2DEE
:1083F000E0D1092190ED000B05E030681CF066FD2E
:1084000041EC100B06212046FFF742FEA06804B0A5
:10841000BDE8F0815B212046FFF78EFC35884FF6E2
:10842000FF76B54212D0E768294607F12C00FEF727
:10843000CEFC05463A462146FFF7A2FFED88B5423D
:10844000EFD02C212046FFF777FCEAE75D2120469C
:10845000FFF772FCDAE77B212046FFF76DFC4FF651
:10846000FF7735880126BD4218D0D4F80C80294604
:1084700008F12C00FEF7ABFC054642462146FFF70B
:108480007FFFED88BD4206D0002E0CBF2C213A2183
:108490002046FFF751FC86F00106E4E77D21D6E790
:1084A0000022314601A8FEF7D4FCDDE90112204686
:1084B000FFF750FCAAE701223168F3E73168CA8868
:1084C0000831F4E731682046CA880831FFF7EEFB2F
:1084D0009CE73268D3172046FFF770FC96E7D0E997
:1084E0000023F8E7337823B104492046FFF7F2FB75
:1084F0008CE70349F9E700BF8EA10200D8A1020072
:10850000DDA1020030B587B06C4684E80300144654
:108510001D46E318CDE9023400230A46CDE90431B3
:1085200040B102A9FFF72CFF854284BF00232354EA
:1085300007B030BD02A80249FFF7CCFB0498F3E76F
:108540008EA102002DE9F0438FB003AC84E80E0049
:10855000169E009694E80E000746FFF7B2F978B928
:1085600094E807000BAD85E80700314607A8FEF741
:10857000EDFEDDF81C80B8F1000F04D10024204688
:108580000FB0BDE8F083314609A8FEF7DFFE099C75
:10859000002CF3D0009695E80E004046FFF7DDF87A
:1085A0000028EBD0BDF82850A8F806507988BDF80F
:1085B00020904FF6FF73994207D006F12C00FEF78A
:1085C00006FCA0F806907D80D9E7A7F80090FAE7AE
:1085D00070B5446886B014B9002006B070BD00F1D3
:1085E0000C02866807CA03AB83E80700024600282E
:1085F000F2D0217961B9202121714FF6FF712180DC
:108600006180039200960ECB2046FFF79BFFE4E7C4
:108610002029F6D0E0E738B504460D46FFF7D8FF2D
:10862000A168044628B1FEF76FFC0623237125706C
:10863000012038BD37B504460D46FFF7C9FFA368D2
:10864000CDE9000302AB284613E90600FFF7FAF86C
:10865000A06810B1007980F0010003B030BD70B5A2
:10866000036813F1380686B002D1002006B070BD51
:10867000021D07CA03AC84E8070002460028F4D0B4
:1086800093F83C1071B9202183F83C104FF6FF712C
:10869000198759870392009394E80E003046FFF73C
:1086A00051FFE3E72029F5D0DFE738B504460D4652
:1086B0000846FFF7D4FF2B68C4E90003204638BD05
:1086C00073B56C4605460E4601462046FFF7EDFFA2
:1086D000304694E80600FFF7B5F8286810B1007935
:1086E00080F0010002B070BD10B52DED028B82B09C
:1086F00001466846B0EE408AFFF7D7FF009C64B1A0
:1087000020460199FEF700FC0E23237184ED008AB8
:10871000012002B0BDEC028B10BD2046F9E737B551
:108720000D4601466846FFF7C0FF009C4CB120464D
:108730000199FEF7E9FB0A2323712560012003B0AC
:1087400030BD2046FBE737B50D4601466846FFF7CA
:10875000ACFF009C4CB120460199FEF7D5FB0C23E1
:1087600023712560012003B030BD2046FBE737B5FB
:108770000D4601466846FFF798FF009C4CB1204625
:108780000199FEF7C1FB0C2323712560012003B082
:1087900030BD2046FBE730B50D4689B001460446A2
:1087A00003A8FFF782FF2A68AB680398CDE9052389
:1087B00000238DF81C30049B009308AB13E90E00D6
:1087C000FFF72DF8206810B1007980F0010009B0A2
:1087D00030BD37B50D4601466846FFF766FF009C81
:1087E0004CB120460199FEF78FFB0A2323712560C7
:1087F000012003B030BD2046FBE737B50D460146EA
:108800006846FFF752FF009C4CB120460199FEF7E5
:108810007BFB062323712570012003B030BD204669
:10882000FBE730B585B005466846FEF7E0FA6846D6
:10883000FFF715FF0099044638B1FEF765FB2023CA
:1088400023714FF6FF7323806380009B2C602846C2
:108850006B6005B030BDFFFF2DE9F047ADF5387D09
:108860005C4D019008AC07468A46914680215A4AE1
:108870000095984618A8594BC19E1DF0B5FF20469B
:10888000FEF7F0FB564A214638A8FEF78DFC51460C
:1088900038A8FFF715FF294602A805AD19F023F8FF
:1088A00002A9284619F060F84E49284619F0DAF86E
:1088B000394619F0D7F84C4A0746214638A8FEF742
:1088C00034FC394638A8FFF766FF284618F0C0FF89
:1088D00002A818F0BDFF454A214638A8FEF772FCF1
:1088E000494638A8FFF7ECFE414A214638A8FEF772
:1088F0001CFC414638A8FFF7E3FE214638A83D4A54
:10890000FEF759FCC09938A8FFF7DAFE46B12146B8
:1089100038A8394AFEF709FC314638A8FFF7D0FEDF
:10892000364A214638A8FEF766FCC29938A8FFF7F8
:10893000C7FE214602A8324AFFF773FF314A02A957
:1089400038A8FEF75FFC234938A8FFF773FE244AD6
:1089500002A938A8FEF744FC2B4938A8FFF76AFEA5
:108960002A4A02A938A8FEF758FC294938A8FFF777
:1089700061FE284A02A938A8FEF744FC264938A817
:10898000FFF758FE254A02A938A8FEF746FC2449FD
:1089900038A8FFF74FFE16ABC5E9003438AA95E8B2
:1089A00003004FF40073FFF7ADFD00230093012295
:1089B00018A91C480EF0DDFA38A91A4818F077FEFD
:1089C00018480EF0B0FE2046FEF78CFB0DF5387D02
:1089D000BDE8F0870BA10200F4A00200E6A00200AF
:1089E000D3C702001CA102001EA1020026A10200A2
:1089F0002DA1020035A1020042A1020076CA0200A8
:108A00004AA102004EA1020042AE020052A10200A1
:108A100055A102005AA102005EA102006AA1020053
:108A20006DA10200D405002070B4064D2C78661CA0
:108A30002E70054D2D78A54202D170BCFFF70CBFFA
:108A400070BC7047C8050020B50500202DE9F0472F
:108A5000ADF5387D534E019008AC80460D469246E8
:108A60009946514A514B524F0096802118A81DF04B
:108A7000BBFE2046FEF7F6FA3A46214638A8FEF736
:108A800093FB294638A8FFF71BFE05AD314602A827
:108A900018F029FF02A9284618F066FF4549284624
:108AA00018F0E0FF414618F0DDFF434A80462146BA
:108AB00038A8FEF73AFB414638A8FFF76CFE284677
:108AC00018F0C6FE02A818F0C3FE3C4A214638A89A
:108AD000FEF763FB514638A8FFF7F2FD384A2146FE
:108AE00038A8FEF76FFB494638A8FFF7E9FD354A7D
:108AF000214638A8FEF77FFBC09938A8FFF7E0FDB4
:108B0000214602A8304AFFF78CFE304A02A938A855
:108B1000FEF778FB314638A8FFF78CFD3A4602A9EC
:108B200038A8FEF75DFB2A4938A8FFF783FD294ADC
:108B300002A938A8FEF771FB274938A8FFF77AFD8C
:108B4000264A02A938A8FEF75DFB254938A8FFF799
:108B500071FD244A02A938A8FEF75FFB224938A814
:108B6000FFF768FD16ABC5E9003438AA95E80300A5
:108B70004FF400731D4DFFF7C5FC00230093012245
:108B800018A928460EF0F5F938A9284618F08FFDE7
:108B900028460EF0C8FD2046FEF7A4FA0DF5387DF4
:108BA000BDE8F0870BA1020071A10200E6A002005F
:108BB000D3C702001CA102001EA1020088A102006E
:108BC00026A1020076CA02004AA102004EA10200BC
:108BD00042AE020052A1020055A102005AA10200B9
:108BE0005EA102006AA102006DA10200D40500206E
:108BF00070B4064D2C78661C2E70054D2D78A5425C
:108C000002D170BCFFF722BF70BC7047C8050020BE
:108C1000B50500202DE9F04F2DED048BADF5397D24
:108C2000704D019008AC80468B46924680216E4A7A
:108C30000095994618A86D4BC79FC89EF0EE608AB4
:108C4000B0EE418AB0EE409A1DF0CEFD2046FEF710
:108C500009FA674A214638A8FEF7A6FA594638A805
:108C6000FFF72EFD294602A805AD18F03CFE02A92B
:108C7000284618F079FE5F49284618F0F3FE414671
:108C800018F0F0FE5C4A8046214638A8FEF74DFAFF
:108C9000414638A8FFF77FFD284618F0D9FD02A805
:108CA00018F0D6FD554A214638A8FEF776FA514607
:108CB00038A8FFF705FD524A214638A8FEF782FA88
:108CC000494638A8FFF7FCFC4E4A214638A8FEF773
:108CD0004FFAB0EE490A38A8FFF706FD4A4A214686
:108CE00038A8FEF745FAB0EE680A38A8FFF7FCFC92
:108CF000464A214638A8FEF757FAB0EE480A38A887
:108D0000FFF7F2FC214638A8414AFEF754FAC6990B
:108D100038A8FFF7D5FC47B1214638A83D4AFEF7F1
:108D200004FA394638A8FFF7CBFC46B1214638A8EB
:108D3000394AFEF760FA314638A8FFF7C1FC2146F0
:108D400002A8364AFFF76DFD354A02A938A8FEF79A
:108D500059FA244938A8FFF76DFC254A02A938A81A
:108D6000FEF73EFA2F4938A8FFF764FC2E4A02A905
:108D700038A8FEF752FA2D4938A8FFF75BFC2C4AB9
:108D800002A938A8FEF73EFA2A4938A8FFF752FC94
:108D9000294A02A938A8FEF740FA284938A8FFF75F
:108DA00049FC16ABC5E9003438AA95E803004FF436
:108DB0000073FFF7A7FB00230093012218A92048A6
:108DC0000EF0D7F838A91E4818F071FC1C480EF0B8
:108DD000AAFC2046FEF786F90DF5397DBDEC048B23
:108DE000BDE8F08F0BA10200CAA00200E6A00200BD
:108DF000D3C702001CA102001EA1020088A102002C
:108E000026A102008FA0020039AD0200E1A00200FD
:108E100035A1020042A1020076CA02004AA1020066
:108E20004EA1020042AE020052A1020055A1020072
:108E30005AA102005EA102006AA102006DA1020017
:108E4000D405002070B4064D2C78661C2E70054D9C
:108E50002D78A54202D170BCFFF7DCBE70BC704714
:108E6000C8050020B505002038B504460D46FEF7BC
:108E7000B9FFA8424FF0000004BF6075012038BD63
:108E8000F0B585B00F466946064681E80C001446E9
:108E90000AB3194610461D46FEF736F816F1004291
:108EA00047F10003012B08BF002A05D20C232371D0
:108EB0002660012005B0F0BD02A82946FEF779FA28
:108EC00002980028F6D01C232371BDF80C302380B3
:108ED000C0E90067EDE71046ECE71FB50C46014618
:108EE0006846FFF7E2FB009B0293019B039304ABF0
:108EF00013E90C0020460021FFF7C2FF04B010BDAB
:108F00007F2837B50C4605D841B22046FDF7E5FF6E
:108F100003B030BD00238DF8003000F03F0380091E
:108F200082B263F07F031F2A8DF80130C3B20DD8DF
:108F300063F03F038DF802300DF1030515F9011DB3
:108F40000029E5D02046FDF7C8FFF7E7C0F38910F8
:108F500003F03F0363F07F030F288DF80230C3B2A4
:108F600005DC63F01F038DF8033001ADE6E703F085
:108F70003F03801163F07F0360F00F008DF8033032
:108F80008DF804000DF10505D8E7FFFF2DE9F04746
:108F90008046FEF727FF0024384E88F81540074624
:108FA00025464046FEF71EFF8742014688F81550C9
:108FB0005CD010B90220BDE8F0875C2852D1404651
:108FC000FEF710FF0028F5D075283CD188F8155021
:108FD0004FF004094FF0000A4046FEF703FF002857
:108FE000E8D04028CBBF20F020023038373AC3B257
:108FF000C8BFD3B20F2B01D90320DCE709F1FF3939
:1090000043EA0A1319F0FF091FFA83FA88F815508A
:10901000E2D10AF520539BB2B3F5806F02D2CAF3B6
:109020000904BEE70AF510539BB2B3F5806F3DBF4C
:10903000CAF3090A4AEA842A0AF5803050464146B2
:10904000FFF75EFFADE700239A579919002AD3D0A6
:10905000904203F10203F7D191F901100029CBD01E
:1090600088F815504046FDF738FF9AE7D8F80430E5
:10907000002B0CBF042000209DE700BF93A102003D
:109080002F280EDD392803DD5E2803DD7A2803DC76
:1090900001207047402804DD5A28CCBF0020012061
:1090A00070470020704770B50446FDF706FF204664
:1090B000FEF798FE27281ED022281CD02046FEF757
:1090C00091FE0546FFF7DCFF98B1002629462046B1
:1090D0006675FDF702FF2046FEF784FE0546FFF7A2
:1090E000CFFF0028F2D16368002B0CBF04200020C2
:1090F00000E0032070BD2046FFF748FFFAE72DE9A6
:10910000F04F5FFA83F98DB004460D46B9F1000FB8
:1091100000F0858000234375FEF77DFEB8B97D2100
:109120002046FFF7A1FE88B90DF124082046FFF77D
:10913000BAFF60B92046FEF76EFE064638B93A21FE
:109140002046FFF791FE28B9032000E000200DB073
:10915000BDE8F08FD4E9013213448DF82C601E7203
:10916000D4E901320833CDE90932A369009398E8C4
:109170000E002846FEF7A5FB074600284BD1D4F881
:1091800018B005A85946FEF7E1F8059E0EB904206F
:10919000DDE7594607A8FEF7D9F8079F002FF6D05C
:1091A000BDF820A0A6F806A06988BDF818304FF6D3
:1091B000FF7291422DD00BF12C000393FDF707FEB7
:1091C000039BC380A5F802A031462046FEF780FA33
:1091D00009F1FF334FF000023946204600F022F833
:1091E0000028B4D12046FEF716FE0028AFD17D211D
:1091F0002046FFF739FE0028A8D12C212046FFF792
:1092000033FE0028A0D02046FEF705FE00288DD0B2
:109210009DE72B80D6E7A169FDF776FED8E705200C
:1092200095E7FFFFF8B505460E461F46FEF7F3FD2E
:109230000446002858D12846FEF7D4FD66286DD094
:1092400013DC272803D05B2817D022286BD12846AF
:10925000FDF733FE2846FFF799FE0446002843D168
:1092600031462846FEF734FA3EE074284DD07B287C
:109270003CD06E2857D130494CE040233371FFB2C7
:109280004FF6FF7333807380002F51D06C752846E2
:10929000FEF7C1FD044638BB5D212846FFF7E4FD1B
:1092A00008BB013FA9693046FEF769F8014600286E
:1092B00040D03B464FF000022846FFF7B3FF04467C
:1092C00090B92846FEF7A7FD044668B95D212846F7
:1092D000FFF7CAFD38B92C212846FFF7C5FD002845
:1092E000E0D1032400E000242046F8BD20233371A0
:1092F0004FF6FF73338073804FF000023B463146D8
:109300002846FFF7FCFE0446EEE7062333710B49BF
:10931000012333702846FEF799FDF4E706233371E5
:1093200034700749F6E731462846FEF7A4FDEAE720
:109330000524D9E70424D7E78EA10200D8A10200B2
:10934000DDA1020070B5B2B0A74904A80BAC0DF0C6
:10935000A7FC2046FDF772FE0B990EA8FDF796FEBE
:1093600000230B9D8DF830300D9828B103680D93C4
:109370002946FDF768FDF7E79B4B8DF86800CDE9BE
:109380001B401D908DF878001F938DF881004FF0E1
:109390000A034FF0000219A91BA82194FFF742FF0E
:1093A000054640B99DF980302BB19DF8683013F027
:1093B000080F18BF03251C9818B11B9B1968FDF7EF
:1093C00042FD25BB89492046FEF7E4FAF8B1874AF9
:1093D000214607A8FDF7E1FE85491BA818F083FA8E
:1093E0001BA904A818F07EFB05461BA818F030FA4C
:1093F000ADB107A8FEF7F8FDA0F1C803B3F52F7FC4
:10940000054604D8FCF7AEF87A4BC3F8DC5020468A
:10941000FDF768FE04A818F01BFA32B070BD76495B
:109420001BA818F060FA1BA904A818F05BFB0546FE
:109430001BA818F00DFA65B107A8FEF7D5FDB0F529
:10944000167F0546E3D8FCF791F86A4BC3F8005144
:10945000DDE76A491BA818F046FA1BA904A818F012
:1094600041FB05461BA818F0F3F965B107A8FEF704
:10947000BBFD431E632B0546C9D8FCF77BF85D4B4B
:10948000C3F8EC50C3E75E491BA818F02CFA1BA9DF
:1094900004A818F027FB05461BA818F0D9F97DB1E0
:1094A00007A8FEF7A1FD64280546B0D8514ED6F8AE
:1094B000E8309842ABDCFCF761F8C6F8E450A6E768
:1094C00050491BA818F00FFA1BA904A818F00AFBB2
:1094D00005461BA818F0BCF97DB107A8FEF784FD6E
:1094E0006428054693D8434ED6F8E43098428EDB84
:1094F000FCF748F8C6F8E85089E743491BA818F07C
:10950000F2F91BA904A818F0EDFA05461BA818F0FB
:109510009FF94DB107A8FEF770FD0546FCF736F838
:10952000344B83F8F05072E738491BA818F0DBF988
:109530001BA904A818F0D6FA05461BA818F088F94C
:109540006DB107A8FEF750FD431E772B05463FF689
:109550005EAFFCF752F8274BC3F8785157E72C4918
:109560001BA818F0C0F91BA904A818F0BBFA0546FF
:109570001BA818F06DF9A5B107A8FEF735FDA0F1FD
:109580003203B3F5E17F05463FF641AF194EB6F918
:109590007E3198423FF73BAFFCF733F8A6F87C5199
:1095A00035E71C491BA818F09EF91BA904A818F060
:1095B00099FA05461BA818F04BF96DB307A8FEF7FA
:1095C00013FDA0F13203B3F5E17F05463FF61FAF6F
:1095D000084EB6F97C319842FFF619AFFCF715F842
:1095E000A6F87E5113E700BFD4050020A89D020015
:1095F000159A0200300A00203A9A0200689A020086
:109600009F9A0200C29A0200E59A02001D9B020086
:10961000459B0200829B0200A4491BA818F063F935
:109620001BA904A818F05EFA05461BA818F010F94B
:109630006DB107A8FEF7D8FC02283FF6E8AEC5B228
:109640002846FCF743F89A4B83F85751DFE69949CF
:109650001BA818F048F91BA904A818F043FA0546FE
:109660001BA818F0F5F84DB107A8FEF7C6FC054693
:10967000FCF735F88E4B83F85651C8E68E491BA887
:1096800018F031F91BA904A818F02CFA05461BA8FC
:1096900018F0DEF885B107A8FEF7A6FC632805469A
:1096A0003FF6B5AEC0B2FCF723F84FF46160804BD3
:1096B0006843C3F85801AAE680491BA818F013F9BB
:1096C0001BA904A818F00EFA05461BA818F0C0F84C
:1096D0006DB107A8FEF788FC00F16403FA2B3FF692
:1096E00096AE734BA3F82A01FCF712F88FE6744983
:1096F0001BA818F0F8F81BA904A818F0F3F9054600
:109700001BA818F0A5F85DB107A8FEF76DFC00F1E5
:109710006403FA2B3FF67BAE654BA3F82C01E3E71D
:1097200068491BA818F0DFF81BA904A818F0DAF99B
:1097300005461BA818F08CF85DB107A8FEF754FC8D
:1097400000F16403FA2B3FF662AE594BA3F82E01E9
:10975000CAE75D491BA818F0C6F81BA904A818F0B1
:10976000C1F905461BA818F073F85DB107A8FEF70C
:109770003BFC00F16403FA2B3FF649AE4C4BA3F8D7
:109780003001B1E751491BA818F0ADF81BA904A896
:1097900018F0A8F905461BA818F05AF85DB107A8FB
:1097A000FEF722FC32283FF632AE414BA3F83201DD
:1097B000FBF7C8FF2BE646491BA818F094F81BA935
:1097C00004A818F08FF905461BA818F041F84DB110
:1097D00007A8FEF709FC32283FF619AE344BA3F870
:1097E0003401E5E73B491BA818F07DF81BA904A844
:1097F00018F078F905461BA818F02AF84DB107A80B
:10980000FEF7F2FB32283FF602AE294BA3F83601F1
:10981000CEE731491BA818F066F81BA904A818F078
:1098200061F905461BA818F013F84DB107A8FEF71B
:10983000DBFB32283FF6EBAD1D4BA3F83801B7E751
:1098400026491BA818F04FF81BA904A818F04AF9DC
:1098500005461BA817F0FCFF75B107A8FEF7C4FB6F
:10986000A0F1C803B3F52F7F3FF6D1AD104BA3F89D
:109870003A01FBF781FFCAE519491BA818F033F834
:109880001BA904A818F02EF905461BA817F0E0FF45
:1098900045B307A8FEF7A8FBA0F1C803B3F52F7FD7
:1098A0003FF6B5AD024BA3F83C01E2E7359C020060
:1098B000300A0020009C0200C99B0200AE9D0200FD
:1098C000BC9D0200C79D0200D59D0200E49D0200E0
:1098D000F39D0200FF9D02000E9E0200659C0200A7
:1098E000909C020083491BA817F0FDFF1BA904A848
:1098F00018F0F8F805461BA817F0AAFF65B107A8ED
:10990000FEF772FBA0F1C803B3F52F7F3FF67FADE2
:10991000794BA3F83E01ACE778491BA817F0E3FFA9
:109920001BA904A818F0DEF805461BA817F090FF45
:1099300065B107A8FEF758FBA0F1C803B3F52F7F68
:109940003FF665AD6C4BA3F8400192E76C491BA84C
:1099500017F0C9FF1BA904A818F0C4F805461BA8F6
:1099600017F076FF5DB367490BA8FEF713F80028E0
:109970003FF44DAD64490BA8FEF70CF800283FF406
:1099800046AD604A0BA91BA8FDF70EFC1BA8FEF70D
:109990002BFB5D4A05460BA91BA8FDF705FC1BA880
:1099A000FEF722FB072D3FF632AD07283FF62FAD1D
:1099B000514B2B4483F84400FBF72CFE27E5534919
:1099C0001BA817F090FF1BA904A818F08BF80546F8
:1099D0001BA817F03DFF95B107A8FEF705FBA0F106
:1099E0002803C82B3FF613AD434BB3F91621904221
:1099F000BFF60DADA3F81401FBF74CFF07E5444992
:109A00001BA817F070FF1BA904A818F06BF80546F7
:109A10001BA817F01DFF95B107A8FEF7E5FAA0F106
:109A20002803C82B3FF6F3AC334BB3F91421904213
:109A30007FF7EDACA3F81601FBF730FFE7E43549FB
:109A40001BA817F050FF1BA904A818F04BF80546F7
:109A50001BA817F0FDFEDDB107A8FEF7CEFA00281F
:109A60003FF4D5AC244D002385F86E31C5F8743130
:109A700095F80631042B7FF4CAAC022385F8063131
:109A8000012385F80C3118F023FFC5F81001BEE45E
:109A900021491BA817F027FF1BA904A818F022F8DA
:109AA00005461BA817F0D4FE002D3FF4B0AC1B49AF
:109AB0000BA8FDF76FFF00283FF4A9AC174A0BA9CC
:109AC0001BA8FDF732FB1BA8FEF76BFA01231B9ABC
:109AD0008DF8043000283FF49AAC01AB02A9CDE91F
